:020000040800F2
:1000000000500020A11B00088D1500089315000862
:10001000991500089F150008A515000800000000AC
:10002000000000000000000000000000AB15000808
:10003000B715000800000000C3150008CF15000820
:10004000E91B0008E91B0008E91B0008E91B000880
:10005000E91B0008E91B0008E91B0008E91B000870
:10006000E91B0008E91B0008E91B0008E91B000860
:10007000E91B0008E91B0008E91B0008E91B000850
:10008000E91B0008E91B0008E91B0008E91B000840
:10009000E91B0008E91B0008E91B0008E91B000830
:1000A000E91B0008E91B0008E91B0008E91B000820
:1000B000DD150008E91B0008E91B0008E91B000822
:1000C000E91B0008E91B0008E91B0008E91B000800
:1000D000E91B0008E91B0008F1150008E91B0008EE
:1000E000E91B0008E91B0008E91B000800000000EC
:1000F0000000000000000000000000000000000000
:0C01000000000000000000005FF808F1A3
:10010C0010B5054C237833B9044B13B10448AFF345
:10011C0000800123237010BD980000200000000017
:10012C000C4C000808B5034B1BB103490348AFF353
:10013C00008008BD000000009C0000200C4C000852
:10014C0080B483B000AF7860094A7B6852F82330E2
:10015C00012B06D1064A7B68002142F823100123AB
:10016C0000E0002318460C37BD4680BC704700BF2A
:10017C000401002080B483B000AF78607B68002B52
:10018C0007DB7B68032B04DC044A7B68012142F803
:10019C00231000BF0C37BD4680BC70470401002003
:1001AC0080B582B000AF0023FB71E5E0FA79FB79F2
:1001BC00764951F82220764941F82320FA79FB79C7
:1001CC00744951F82220714941F82320FB79002B06
:1001DC000BD10121704802F0A7F803461A46FB79AF
:1001EC0011466C4A42F823102BE0FB79012B0BD102
:1001FC000221694802F098F803461A46FB79114629
:10020C00644A42F823101CE0FB79022B0BD110211D
:10021C00614802F089F803461A46FB7911465D4A9B
:10022C0042F823100DE0FB79032B0AD101215B4826
:10023C0002F07AF803461A46FB791146554A42F801
:10024C002310FB79524A52F82320FB794F4951F87D
:10025C0023309A4240F08480FB794C4A52F8232098
:10026C00FB794C4951F823309A4279D1FA79FB79D0
:10027C00474951F822204A4941F82320FB79494A41
:10028C0052F823300D2B43D00D2B6BDC0B2B02D0F3
:10029C000C2B2DD066E0FB79434A52F82320013217
:1002AC00414941F82320FB793F4A52F82330642B13
:1002BC000DD1FB793B4A0D2142F82310FB793A4AC8
:1002CC00002142F82310FB791846FFF753FFFB7906
:1002DC00334A52F82330012B46D1FB79314A0C2199
:1002EC0042F82310FB79304A002142F823103BE0FE
:1002FC00FB792B4A52F82330002B37D1FB79294A52
:10030C000B2142F82310FB791846FFF733FF2DE041
:10031C00FB79254A52F823200132234941F8232046
:10032C00FB79214A52F82330142B08D1FB7918465B
:10033C00FFF720FFFB791C4A002142F82310FB79C0
:10034C00174A52F82330012B12D1FB79154A0C2194
:10035C0042F82310FB79144A002142F8231007E0DD
:10036C0000BF06E000BF04E000BF02E000BF00E0F9
:10037C0000BFFB790133FB71FB79032B7FF616AFC2
:10038C0000BF00BF0837BD4680BD00BFD4000020B1
:10039C00E4000020C400002000080140000C0140D3
:1003AC00B400002000000020F400002080B500AF55
:1003BC008B4B1B68013B042B00F20F8101A252F8FE
:1003CC0023F000BFE50300080904000879040008C5
:1003DC00F104000863050008814B02221A604FF4F7
:1003EC007A7001F045F97F4B1B687F4A136001F06E
:1003FC00A3FB01F0DFF901F029FAEEE07B4B1B685F
:10040C00012B15D1784B1B68013B774A13604FF4D5
:10041C007A7001F02DF9744B1A68754B1B689A426F
:10042C0004D101F037FA6E4B03221A6001F084FB01
:10043C000120FFF785FE0346002B00F0C780022049
:10044C00FFF77EFE0320FFF77BFE654B0B221A6045
:10045C004EF6602001F00CF901F0ACF901F0F6F960
:10046C00614B63221A6001F067FBB6E05F4B1B68BF
:10047C00012B19D15C4B1B68013B5B4A13604FF499
:10048C007A7001F0F5F8584B1B68002B0AD1594BC8
:10049C001B68554A136001F0B1F901F09FF9504BFC
:1004AC0004221A6001F048FB0120FFF749FE0346C5
:1004BC00002B00F08D800220FFF742FE0320FFF797
:1004CC003FFE474B0B221A604EF6602001F0D0F82D
:1004DC0001F070F901F0BAF9434B63221A6001F094
:1004EC002BFB7AE0414B1B68012B17D13E4B1B6851
:1004FC00013B3D4A13604FF47A7001F0B9F83A4B66
:10050C001B68002B08D13C4B1B68374A136001F069
:10051C00ADF9334B05221A6001F00EFB0120FFF7F9
:10052C000FFE0346002B55D00220FFF709FE0320D7
:10053C00FFF706FE2A4B0B221A604EF6602001F0E4
:10054C0097F801F037F901F081F9274B63221A6013
:10055C0001F0F2FA41E0254B1B68012B19D1224B1B
:10056C001B68013B204A13604FF47A7001F080F84D
:10057C001D4B1B68002B0AD11A4B1B681A4A1360BF
:10058C0001F018F901F062F9154B02221A6001F022
:10059C00D3FA0120FFF7D4FD0346012B1CD1022016
:1005AC00FFF7CEFD0320FFF7CBFD0D4B0B221A609E
:1005BC004EF6602001F05CF801F0FCF801F046F911
:1005CC00094B63221A6001F0B7FA06E000BF04E0A1
:1005DC0000BF02E000BF00E000BF00BF80BD00BF55
:1005EC001801002010000020200100203401002000
:1005FC0024000020140000201800002080B500AF5B
:10060C009B4B1B680B3B032B00F2268101A252F87B
:10061C0023F000BF31060008BD0600084D07000896
:10062C00DB0700080320FFF78BFD924B1B68002BA8
:10063C0010D08F4B03221A604FF47A7001F018F827
:10064C008D4B1B688D4A136001F076FA01F0B2F8FD
:10065C0001F020F90120FFF773FD0346002B14D0A5
:10066C000220FFF76DFD824B15221A604FF47A7051
:10067C0000F0FEFF824B1B68804A136001F05CFAAD
:10068C0001F0D0F801F016F9EFE00220FFF758FD69
:10069C000346002B00F0E280754B0C221A6001F02F
:1006AC0089F801F0F7F84EF6602000F0E1FFD5E094
:1006BC000320FFF745FD6F4B1B68002B10D06C4BD4
:1006CC0004221A604FF47A7000F0D2FF6D4B1B6855
:1006DC006A4A136001F030FA01F090F801F07EF8EC
:1006EC000120FFF72DFD0346002B16D00220FFF74B
:1006FC0027FD5F4B15221A604FF47A7000F0B8FF9B
:10070C005F4B1B685D4A136001F016FA01F08AF822
:10071C0001F0D0F80220FFF713FD0220FFF710FDC7
:10072C000346002B00F09C80514B0D221A6001F007
:10073C0065F801F053F84EF6602000F099FF8FE059
:10074C000320FFF7FDFC4B4B1B68002B10D0484BD4
:10075C0005221A604FF47A7000F08AFF4A4B1B682E
:10076C00464A136001F0E8F901F080F801F036F820
:10077C000120FFF7E5FC0346002B16D00220FFF703
:10078C00DFFC3B4B15221A604FF47A7000F070FFBF
:10079C003B4B1B68394A136001F0CEF901F042F86B
:1007AC0001F088F80220FFF7CBFC0220FFF7C8FC11
:1007BC000346002B56D02E4B0E221A6001F056F831
:1007CC0001F00CF84EF6602000F052FF4AE00320D6
:1007DC00FFF7B6FC274B1B68002B10D0244B0222D2
:1007EC001A604FF47A7000F043FF254B1B68234AC4
:1007FC00136001F0A1F900F0DDFF01F027F80120F2
:10080C00FFF79EFC0346002B14D00220FFF798FC48
:10081C00174B15221A604FF47A7000F029FF184B11
:10082C001B68164A136001F087F900F0FBFF01F01A
:10083C0041F81AE00220FFF783FC0346002B13D08B
:10084C000B4B0B221A6000F0B5FF00F0FFFF4EF6C9
:10085C00602000F00DFF07E000BF06E000BF04E0E1
:10086C0000BF02E000BF00E000BF00BF80BD00BFC2
:10087C001801002034010020240000202001002059
:10088C0010000020140000201800002080B500AFDC
:10089C005C4B1B68013B032B00F2AA8001A252F8AF
:1008AC0023F000BFC1080008CD0800083909000872
:1008BC007509000801F036F8524B02221A609EE0CE
:1008CC000020FFF73DFC0346002B00F093804E4BBD
:1008DC001B68022B0BD04C4B1B680B2B07D04A4BC5
:1008EC001B680C2B03D0484B1B68032B08D1454BC2
:1008FC0004221A6001F002F8FA2000F0D5FE79E02B
:10090C00414B1B68042B0BD03F4B1B680D2B07D0A6
:10091C003D4B1B68052B03D03B4B1B680E2B69D141
:10092C00384B03221A6000F0D5FF63E0374B1B688D
:10093C00002B08D0354B00221A60324B02221A6071
:10094C0000F0F0FF5BE0304B1B68022B03D02E4B0A
:10095C001B680B2B50D12B4B04221A6000F0CEFFDE
:10096C00FA2000F0A1FE47E0294B1B68002B21D098
:10097C00284B1B68002B12D1274B1A6813469B017E
:10098C009A1A264B1B6892FBF3F3C3F13F03214ADF
:10099C001360204B1A68224B1B685A6307E01D4BEF
:1009AC0000221A601B4B1A681D4B1B685A63FA20F5
:1009BC0000F07AFE144B1B68042B0BD0124B1B68F7
:1009CC000D2B07D0104B1B68052B03D00E4B1B684F
:1009DC000E2B13D10B4B03221A604FF47A7000F0DC
:1009EC007FFE00F077FF0E4B1B6800225A6305E078
:1009FC0000BF04E000BF02E000BF00E000BF00BF8A
:100A0C0080BD00BF1C010020180100203C0100200B
:100A1C0038010020140100202001002010000020CB
:100A2C005401002080B500AFB64B1B68153B052B5D
:100A3C0000F2768201A252F823F000BF610A00088E
:100A4C00270B0008ED0B0008B70C00089D0D0008E3
:100A5C00650E0008AC4B1B68002B08D0AA4B00227B
:100A6C001A604FF47A7000F003FE00F06FFF012063
:100A7C00FFF766FB0346002B19D00220FFF760FB43
:100A8C000320FFF75DFB9F4B02221A6000F0A8FFCA
:100A9C004FF47A7000F0ECFD9C4B1B689C4A136081
:100AAC0001F04AF800F086FE00F0D0FE45E200208E
:100ABC00FFF746FB0220FFF743FB0346002B16D043
:100ACC000320FFF73DFB8F4B16221A604FF47A7010
:100ADC0000F0CEFD00F084FF8E4B1B688C4A136037
:100AEC0001F02AF800F09EFE00F0E4FE25E203205F
:100AFC00FFF726FB0346002B00F01482844B1B6887
:100B0C000133834A1360824B1B68632B02DD804BDD
:100B1C0002221A6001F010F804E27B4B1B68002BD8
:100B2C0008D0794B00221A604FF47A7000F0A0FDC7
:100B3C0000F018FF0120FFF703FB0346002B19D030
:100B4C000220FFF7FDFA0320FFF7FAFA00F06AFF24
:100B5C006C4B02221A604FF47A7000F089FD6B4BDB
:100B6C001B686B4A136000F0E7FF00F037FE00F0E3
:100B7C006DFEE2E10020FFF7E3FA0220FFF7E0FA56
:100B8C000346002B16D00320FFF7DAFA5D4B172231
:100B9C001A604FF47A7000F06BFD00F043FF5E4B6F
:100BAC001B685B4A136000F0C7FF00F03BFE00F0CF
:100BBC0081FEC2E10320FFF7C3FA0346002B00F0CD
:100BCC00B381534B1B680133514A1360504B1B6864
:100BDC00632B02DD4E4B02221A6000F0ADFFA3E145
:100BEC00494B1B68002B08D0474B00221A604FF46E
:100BFC007A7000F03DFD00F0BFFE0120FFF7A0FA77
:100C0C000346002B19D00220FFF79AFA0320FFF7B6
:100C1C0097FA00F029FF3B4B02221A604FF47A70CE
:100C2C0000F026FD394B1B68394A136000F084FF35
:100C3C0000F0C0FD00F00AFE7FE10020FFF780FA13
:100C4C000220FFF77DFA0346002B16D00320FFF796
:100C5C0077FA2C4B18221A604FF47A7000F008FDCA
:100C6C0000F002FF2D4B1B68294A136000F064FF53
:100C7C0000F0D8FD00F01EFE5FE10320FFF760FAE4
:100C8C000346002B00F05281214B1B680133204A94
:100C9C001360204B1A681E4B1B689A4202DC1C4BDB
:100CAC0001221A6000F048FF40E1174B1B68002B33
:100CBC0008D0154B00221A604FF47A7000F0D8FC63
:100CCC0000F064FE0120FFF73BFA0346002B27D00F
:100CDC000220FFF735FA0320FFF732FA094B022204
:100CEC001A6000F0DBFE4FF47A7000F0C1FC074B89
:100CFC001B68074A136000F01FFF00F05BFD00F05B
:100D0C00A5FD1AE11801002034010020100000207C
:100D1C00200100201C0000201400002020000020D6
:100D2C000020FFF70DFA0220FFF70AFA0346002B0A
:100D3C0016D00320FFF704FA814B19221A604FF4E6
:100D4C007A7000F095FC00F0A9FE7E4B1B687E4A81
:100D5C00136000F0F1FE00F065FD00F0ABFDECE07F
:100D6C000320FFF7EDF90346002B00F0E180764BF2
:100D7C001B680133744A1360744B1A68724B1B68FE
:100D8C009A4202DC704B01221A6000F0D5FECFE0D3
:100D9C006F4B1B68002B08D06D4B00221A604FF470
:100DAC007A7000F065FC00F0FBFD0120FFF7C8F93C
:100DBC000346002B19D00220FFF7C2F90320FFF7DE
:100DCC00BFF95F4B02221A6000F082FE4FF47A707A
:100DDC0000F04EFC5D4B1B685B4A136000F0ACFEF0
:100DEC0000F0E8FC00F032FDA7E00020FFF7A8F9C6
:100DFC000220FFF7A5F90346002B16D00320FFF7BE
:100E0C009FF94F4B1A221A604FF47A7000F030FCA5
:100E1C0000F05EFE4F4B1B684B4A136000F08CFEDB
:100E2C0000F000FD00F046FD87E00320FFF788F995
:100E3C000346002B7ED0444B1B680133424A13609F
:100E4C00454B1A68404B1B689A4202DC3E4B012210
:100E5C001A6000F071FE6DE03D4B1B68002B08D052
:100E6C003B4B00221A604FF47A7000F001FC00F04A
:100E7C00A9FD0120FFF764F90346002B19D00220CD
:100E8C00FFF75EF90320FFF75BF92D4B02221A6086
:100E9C0000F038FE4FF47A7000F0EAFB2B4B1B6825
:100EAC00294A136000F048FE00F084FC00F0CEFCF0
:100EBC0043E00020FFF744F90220FFF741F9034615
:100ECC00002B16D00320FFF73BF91D4B15221A609F
:100EDC004FF47A7000F0CCFB00F014FE1B4B1B6837
:100EEC00194A136000F028FE00F09CFC00F0E2FCB4
:100EFC0023E00320FFF724F90346002B1CD0124BF0
:100F0C001B680133104A1360104B1A680E4B1B6898
:100F1C009A4202DC0C4B01221A6000F00DFE0BE031
:100F2C0000BF0AE000BF08E000BF06E000BF04E01D
:100F3C0000BF02E000BF00E000BF00BF80BD00BFEB
:100F4C0018010020180000202001002010000020B3
:100F5C0034010020240000201C00002080B500AFCC
:100F6C0000F03EFE00F028F800F054F900F066F8AE
:100F7C0000F026F900F0AEF800F0BFF90A4801F0D5
:100F8C0085FE0021094801F02BFF094B01221A6054
:100F9C00084B01221A60FFF709FAFFF72FFBFFF746
:100FAC0041FDFFF773FCF6E79C0100205401002083
:100FBC00180100201C01002080B590B000AF07F193
:100FCC00180328220021184603F0D8F93B1D0022F3
:100FDC001A605A609A60DA601A610223BB610123BD
:100FEC00BB621023FB6202237B630023BB634FF4C1
:100FFC006013FB6307F11803184601F0DDF9034693
:10100C00002B01D000F074F90F237B600223BB602E
:10101C000023FB604FF480633B6100237B613B1D2D
:10102C000221184601F048FC0346002B01D000F0C9
:10103C005FF900BF4037BD4680BD000080B586B06B
:10104C0000AF07F1080300221A605A609A60DA6058
:10105C003B4600221A605A601D4B4FF080421A60CA
:10106C001B4B42F20F725A60194B00229A60184BBC
:10107C003F22DA60164B00221A61154B00229A614E
:10108C00134801F0B3FD0346002B01D000F030F9FA
:10109C004FF48053BB6007F1080319460C4802F06B
:1010AC0007F90346002B01D000F022F900233B6026
:1010BC0000237B603B461946054802F085FC03463D
:1010CC00002B01D000F014F900BF1837BD4680BDCD
:1010DC009C01002080B58EB000AF07F128030022E0
:1010EC001A605A609A60DA6007F1200300221A60D5
:1010FC005A603B1D00221A605A609A60DA601A61CD
:10110C005A619A612C4B2D4A1A602B4B40F2E732F4
:10111C005A60294B00229A60274B3F22DA60264BFB
:10112C0000221A61244B00229A61234801F05EFDD3
:10113C000346002B01D000F0DBF84FF48053BB6268
:10114C0007F1280319461C4802F0B2F80346002B9D
:10115C0001D000F0CDF8184801F0EAFD0346002B51
:10116C0001D000F0C5F800233B6200237B6207F13D
:10117C0020031946104802F027FC0346002B01D02F
:10118C0000F0B6F860237B600023BB600023FB609B
:10119C0000237B613B1D00221946074801F0CAFF62
:1011AC000346002B01D000F0A3F8034800F064F9CB
:1011BC0000BF3837BD4680BD5401002000040040FC
:1011CC0080B500AF114B124A1A60104B4FF4E1324C
:1011DC005A600E4B00229A600C4B0022DA600B4BCB
:1011EC0000221A61094B0C225A61084B00229A61A9
:1011FC00064B0022DA61054802F056FC0346002B30
:10120C0001D000F075F800BF80BD00BFE4010020E4
:10121C000044004080B586B000AF07F108030022FF
:10122C001A605A609A60DA602E4B9B692D4A43F023
:10123C00040393612B4B9B6903F004037B607B6875
:10124C00284B9B69274A43F008039361254B9B6904
:10125C0003F008033B603B6800224FF4876122488F
:10126C0001F079F800224FF4A061204801F073F8E6
:10127C001323BB600023FB6000233B6107F10803D1
:10128C0019461A4800F0CCFE0123BB600023FB601A
:10129C0000233B6107F108031946134800F0C0FE18
:1012AC004FF48763BB600123FB6000233B61022387
:1012BC007B6107F1080319460B4800F0B1FE4FF4AF
:1012CC00A063BB600123FB6000233B6102237B61B5
:1012DC0007F108031946054800F0A2FE00BF1837B5
:1012EC00BD4680BD00100240000C014000080140CA
:1012FC0080B400AF72B600BFFEE780B582B000AF1D
:10130C000023FB7106E0FB79184600F00BF8FB7923
:10131C000133FB71FB79272BF5D900BF00BF0837D0
:10132C00BD4680BD80B483B000AF78601C497A683C
:10133C0013469B0013449B000B441B68002B01D1EC
:10134C00002327E016497A6813469B0013449B0040
:10135C000B4400221A6012497A6813469B0013440E
:10136C009B000B44043300221A600D497A68134623
:10137C009B0013449B000B44083300221A6008495D
:10138C007A6813469B0013449B000B440C330022D9
:10139C001A70012318460C37BD4680BC704700BF3D
:1013AC002802002080B485B000AF154B9B69144A0D
:1013BC0043F001039361124B9B6903F00103BB6083
:1013CC00BB680F4BDB690E4A43F08053D3610C4B67
:1013DC00DB6903F080537B607B680A4B5B68FB60C6
:1013EC00FB6823F0E063FB60FB6843F00073FB6079
:1013FC00044AFB68536000BF1437BD4680BC70477D
:10140C00001002400000014080B584B000AF78604D
:10141C007B681B68B3F1804F14D1154BDB69144A00
:10142C0043F00103D361124BDB6903F00103FB6052
:10143C00FB68002200211C2000F00BFD1C2000F09A
:10144C0024FD10E07B681B680A4A93420BD1084BC1
:10145C00DB69074A43F00203D361054BDB6903F0F8
:10146C000203BB60BB6800BF1037BD4680BD00BF28
:10147C00001002400004004080B588B000AF7860D6
:10148C0007F1100300221A605A609A60DA607B68D8
:10149C001B680F4A934217D10E4B9B690D4A43F0C0
:1014AC00040393610B4B9B6903F00403FB60FB6823
:1014BC0040233B6102237B610223FB6107F1100394
:1014CC001946054800F0ACFD00BF2037BD4680BD75
:1014DC0000040040001002400008014080B588B0B4
:1014EC0000AF786007F1100300221A605A609A600E
:1014FC00DA607B681B681F4A934237D11E4BDB694D
:10150C001D4A43F40033D3611B4BDB6903F40033F6
:10151C00FB60FB68184B9B69174A43F0040393610B
:10152C00154B9B6903F00403BB60BB6804233B6150
:10153C0002237B610323FB6107F1100319460F485B
:10154C0000F06EFD08233B6100237B610023BB612F
:10155C0007F110031946094800F062FD0022002132
:10156C00262000F076FC262000F08FFC00BF2037F0
:10157C00BD4680BD00440040001002400008014000
:10158C0080B400AFFEE780B400AFFEE780B400AFDC
:10159C00FEE780B400AFFEE780B400AFFEE780B496
:1015AC0000AF00BFBD4680BC704780B400AF00BF29
:1015BC00BD4680BC704780B400AF00BFBD4680BC48
:1015CC00704780B500AF00F051FB00BF80BD00003C
:1015DC0080B500AF024801F0A5FC00BF80BD00BF84
:1015EC009C01002080B500AF024802F0EFFA00BF6A
:1015FC0080BD00BFE401002080B586B000AF7860EC
:10160C00144A154BD31A7B617B693B61134B1B68E6
:10161C00002B02D1114B124A1A60104B1A687B68CE
:10162C0013443A699A4207D202F07EFE03460C221A
:10163C001A604FF0FF3309E0084B1B68FB60074B47
:10164C001A687B681344054A1360FB681846183700
:10165C00BD4680BD00500020000400003001002079
:10166C006005002080B400AF00BFBD4680BC704751
:10167C0080B483B000AF78607B68084A82FB0312A9
:10168C009210DB17D31A064A1360064B00221A601D
:10169C0000BF0C37BD4680BC704700BF67666666EE
:1016AC00400100203401002080B483B000AF78608A
:1016BC007B68084A82FB03129210DB17D31A064A86
:1016CC001360064B00221A6000BF0C37BD4680BC6D
:1016DC00704700BF67666666440100203801002031
:1016EC0080B483B000AF78607B68084A82FB031239
:1016FC009210DB17D31A064A1360064B00221A60AD
:10170C0000BF0C37BD4680BC704700BF676666667D
:10171C00480100203C01002080B400AF194B1B682D
:10172C00002B0BDD174B1B68013B164A1360154B46
:10173C001B68002B02D1144B01221A60134B1B683F
:10174C00002B0BDD114B1B68013B104A13600F4B38
:10175C001B68002B02D10E4B01221A600D4B1B682B
:10176C00002B0BDD0B4B1B68013B0A4A1360094B2A
:10177C001B68002B02D1084B01221A6000BFBD462A
:10178C0080BC70474001002034010020440100203F
:10179C0038010020480100203C01002080B582B0B7
:1017AC0000AF7860FFF7B8FFFEF7FAFC00BF083710
:1017BC00BD4680BD80B500AF01224FF48061054865
:1017CC0000F0C9FD00220821034800F0C4FD00BF51
:1017DC0080BD00BF00080140000C014080B500AF87
:1017EC0001222021044800F0B6FD002210210248FD
:1017FC0000F0B1FD00BF80BD000C014080B500AF12
:10180C0000224FF48061054800F0A5FD012208215B
:10181C00034800F0A0FD00BF80BD00BF00080140E0
:10182C00000C014080B500AF00224FF480610548E8
:10183C0000F091FD00220821034800F08CFD00BF50
:10184C0080BD00BF00080140000C014080B500AF16
:10185C0000222021044800F07EFD012210210248C4
:10186C0000F079FD00BF80BD000C014080B500AFD9
:10187C0001224FF48061054800F06DFD0122082122
:10188C00034800F068FD00BF80BD00BF00080140A8
:10189C00000C014080B500AF01222021044800F06B
:1018AC005AFD01221021024800F055FD00BF80BDF9
:1018BC00000C014080B500AF00222021044800F04C
:1018CC004AFD00221021024800F045FD00BF80BDFA
:1018DC00000C014080B500AF01224FF48061054837
:1018EC0000F039FD00224FF48071034800F033FD05
:1018FC0000BF80BD000C01400008014080B500AF66
:10190C0000224FF48061054800F025FD01224FF4C0
:10191C008071034800F01FFD00BF80BD000C01402A
:10192C000008014080B500AF00224FF480610548EB
:10193C0000F011FD00224FF48071034800F00BFD04
:10194C0000BF80BD000C01400008014080B500AF15
:10195C004FF48061024800F016FD00BF80BD00BF4F
:10196C000008014080B500AF2021024800F00BFDBB
:10197C0000BF80BD000C014080B500AF08210248BB
:10198C0000F001FD00BF80BD000C014080B500AF30
:10199C001021024800F0F7FC00BF80BD000C014094
:1019AC0080B500AF4FF48061044800F0ECFC0821D6
:1019BC00034800F0E8FC00BF80BD00BF00080140F8
:1019CC00000C014080B500AF2021044800F0DBFC86
:1019DC001021024800F0D7FC00BF80BD000C014074
:1019EC0080B400AF0B4B1B680B4A13600A4B1A6890
:1019FC000A4B1B689A4202DC084B01221A60064B08
:101A0C001A68064B1B68D31A054A136000BFBD4603
:101A1C0080BC704720010020100000202400002012
:101A2C002000002080B400AF0B4B1B680B4A1360E6
:101A3C000A4B1A680A4B1B689A4202DC084B0122BB
:101A4C001A60064B1A68064B1B68D31A054A1360BA
:101A5C0000BFBD4680BC7047200100201C00002048
:101A6C00180000201400002080B400AF074B1B6846
:101A7C00074A1360074B1A68054B1B68D31A064AB2
:101A8C00136000BFBD4680BC704700BF2001002022
:101A9C00140000201C0000201800002080B400AFAF
:101AAC00074B1B68074A1360074B1A68054B1B68EA
:101ABC00D31A064A136000BFBD4680BC704700BFF6
:101ACC002001002020000020100000202400002015
:101ADC0080B400AF074B1B68074A1360074B1A68AA
:101AEC00054B1B68D31A064A136000BFBD4680BC69
:101AFC00704700BF20010020180000201C000020AF
:101B0C001400002080B400AF074B1B68074A136019
:101B1C00074B1A68054B1B68D31A064A136000BFA3
:101B2C00BD4680BC704700BF20010020240000206F
:101B3C00100000202000002080B500AF104B1B6867
:101B4C00104A82FB03129210DB17D01A0C4B1A6846
:101B5C000C4B83FB02139910D317C91A0B469B002D
:101B6C000B445B00D11A0B4602460749074802F0AA
:101B7C000DFC09220549064801F0E3FF00BF80BDBA
:101B8C002001002067666666244C000824010020B2
:101B9C00E40100200C480D490D4A002302E0D45802
:101BAC00C4500433C4188C42F9D30A4A0A4C00239B
:101BBC0001E013600432A242FBD3FFF753FD02F0A5
:101BCC00B9FBFFF7CBF9704700000020980000200C
:101BDC00944C0008980000205C050020FEE70000F3
:101BEC0080B500AF084B1B68074A43F01003136025
:101BFC00032000F023F90F2000F008F8FFF7D2FBC8
:101C0C000023184680BD00BF0020024080B582B082
:101C1C0000AF7860124B1A68124B1B7819464FF4C0
:101C2C007A73B3FBF1F3B2FBF3F3184600F03BF914
:101C3C000346002B01D001230EE07B680F2B0AD842
:101C4C00002279684FF0FF3000F003F9064A7B68F8
:101C5C001360002300E0012318460837BD4680BD01
:101C6C0028000020300000202C00002080B400AFA1
:101C7C00054B1B781A46054B1B681344034A13602B
:101C8C0000BFBD4680BC70473000002048050020D6
:101C9C0080B400AF024B1B681846BD4680BC704731
:101CAC004805002080B485B000AF78607B6803F0F5
:101CBC000703FB600C4BDB68BB60BA684FF6FF0395
:101CCC001340BB60FB681A02BB68134343F0BF634D
:101CDC0043F40033BB60044ABB68D36000BF1437C5
:101CEC00BD4680BC704700BF00ED00E080B400AF83
:101CFC00044BDB681B0A03F007031846BD4680BC87
:101D0C00704700BF00ED00E080B483B000AF034625
:101D1C00FB7197F90730002B0BDBFB7903F01F02EB
:101D2C00064997F907305B09012000FA02F241F8E5
:101D3C00232000BF0C37BD4680BC704700E100E09B
:101D4C0080B483B000AF03463960FB7197F907305C
:101D5C00002B0ADB3B68DAB20C4997F90730120109
:101D6C00D2B20B4483F800230AE03B68DAB208498C
:101D7C00FB7903F00F03043B1201D2B20B441A7629
:101D8C0000BF0C37BD4680BC704700BF00E100E0CF
:101D9C0000ED00E080B489B000AFF860B9607A6003
:101DAC00FB6803F00703FB61FB69C3F10703042B1A
:101DBC0028BF0423BB61FB690433062B02D9FB69E2
:101DCC00033B00E000237B614FF0FF32BB6902FA5A
:101DDC0003F3DA43BB681A407B699A404FF0FF313A
:101DEC007B6901FA03F3D9437B680B401343184614
:101DFC002437BD4680BC704780B582B000AF786098
:101E0C007B68013BB3F1807F01D301230FE00A4AC9
:101E1C007B68013B53600F214FF0FF30FFF790FFC1
:101E2C00054B00229A60044B07221A6000231846C7
:101E3C000837BD4680BD00BF10E000E080B582B021
:101E4C0000AF78607868FFF72DFF00BF0837BD46FC
:101E5C0080BD80B586B000AF0346B9607A60FB7375
:101E6C0000237B61FFF742FF78617A68B968786973
:101E7C00FFF790FF024697F90F3011461846FFF70F
:101E8C005FFF00BF1837BD4680BD80B582B000AF84
:101E9C000346FB7197F907301846FFF735FF00BF73
:101EAC000837BD4680BD80B582B000AF78607868D9
:101EBC00FFF7A2FF034618460837BD4680BD80B425
:101ECC0085B000AF78600023FB737B6893F82130FA
:101EDC00022B08D07B6804229A637B68002283F86B
:101EEC002020012320E07B681B681A687B681B6834
:101EFC0022F00E021A607B681B681A687B681B68EC
:101F0C0022F001021A607B681A6C7B68DB6B012182
:101F1C0001FA02F25A607B68012283F821207B6867
:101F2C00002283F82020FB7B18461437BD4680BC6A
:101F3C007047000080B584B000AF78600023FB735D
:101F4C007B6893F82130022B05D07B6804229A63BE
:101F5C000123FB7351E07B681B681A687B681B6864
:101F6C0022F00E021A607B681B681A687B681B687B
:101F7C0022F001021A607B681B68224A934229D026
:101F8C007B681B68204A934222D07B681B681F4ADF
:101F9C0093421AD07B681B681D4A934212D07B680F
:101FAC001B681C4A93420AD07B681B681A4A9342EE
:101FBC0002D14FF480130EE04FF080730BE04FF41E
:101FCC00803308E04FF4805305E04FF4807302E057
:101FDC00102300E00123114A53607B68012283F82F
:101FEC0021207B68002283F820207B685B6B002B10
:101FFC0003D07B685B6B78689847FB7B184610377F
:10200C00BD4680BD080002401C000240300002406A
:10201C0044000240580002406C00024000000240A4
:10202C0080B48BB000AF7860396000237B620023F2
:10203C003B6269E101227B6A02FA03F3FB613B68B4
:10204C001B68FA691340BB61BA69FB699A4240F09C
:10205C0058813B685B689A4A93425ED0984A934297
:10206C0075D8984A934258D0964A93426FD8964A5C
:10207C00934252D0944A934269D8944A93424CD09A
:10208C00924A934263D8924A934246D0904A9342E2
:10209C005DD8122B2AD8122B59D801A252F823F052
:1020AC0027210008012100081321000855210008F0
:1020BC005B2100085B2100085B2100085B21000804
:1020CC005B2100085B2100085B2100085B210008F4
:1020DC005B2100085B2100085B2100085B210008E4
:1020EC005B210008092100081D210008794A934250
:1020FC0013D02CE03B68DB683B6229E03B68DB6873
:10210C0004333B6224E03B68DB6808333B621FE02E
:10211C003B68DB680C333B621AE03B689B68002B26
:10212C0002D104233B6213E03B689B68012B05D171
:10213C0008233B627B68FA691A6109E008233B6259
:10214C007B68FA695A6103E000233B6200E000BF40
:10215C00BB69FF2B01D87B6801E07B6804337B6192
:10216C00BB69FF2B02D87B6A9B0002E07B6A083BB1
:10217C009B003B617B691A680F213B6901FA03F3F1
:10218C00DB431A40396A3B6901FA03F31A437B6952
:10219C001A603B685B6803F08053002B00F0B18041
:1021AC004D4B9B694C4A43F0010393614A4B9B692D
:1021BC0003F00103BB60BB68484A7B6A9B0802338F
:1021CC0052F82330FB607B6A03F003039B000F2261
:1021DC0002FA03F3DB43FA681340FB607B68404A66
:1021EC00934213D07B683F4A93420DD07B683E4AA2
:1021FC00934207D07B683D4A934201D1032306E00A
:10220C00042304E0022302E0012300E000237A6AA5
:10221C0002F0030292009340FA681343FB602F49CB
:10222C007B6A9B080233FA6841F823203B685B68A1
:10223C0003F48033002B06D02D4B1A682C49BB6954
:10224C0013430B6006E02A4B1A68BB69DB43284931
:10225C0013400B603B685B6803F40033002B06D023
:10226C00234B5A682249BB6913434B6006E0204B51
:10227C005A68BB69DB431E4913404B603B685B6883
:10228C0003F48013002B06D0194B9A681849BB69CC
:10229C0013438B6006E0164B9A68BB69DB43144909
:1022AC0013408B603B685B6803F40013002B21D058
:1022BC000F4BDA680E49BB691343CB6021E000BFBA
:1022CC00000032100000311000002210000021101C
:1022DC00000012100000111000100240000001401C
:1022EC0000080140000C01400010014000140140A6
:1022FC00000401400B4BDA68BB69DB43094913400E
:10230C00CB607B6A01337B623B681A687B6A22FA7A
:10231C0003F3002B7FF48EAE00BF00BF2C37BD46FD
:10232C0080BC70470004014080B485B000AF786079
:10233C000B467B807B689A687B881340002B02D00D
:10234C000123FB7301E00023FB73FB7B184614375E
:10235C00BD4680BC704780B483B000AF78600B463C
:10236C007B8013467B707B78002B03D07A887B684C
:10237C001A6103E07B881A047B681A6100BF0C3772
:10238C00BD4680BC704780B485B000AF78600B460A
:10239C007B807B68DB68FB607A88FB6813401A04DF
:1023AC00FB68D9437B880B401A437B681A6100BFDA
:1023BC001437BD4680BC704780B586B000AF7860DE
:1023CC007B68002B01D101236CE27B681B6803F056
:1023DC000103002B00F08780924B5B6803F00C0329
:1023EC00042B0CD08F4B5B6803F00C03082B12D121
:1023FC008C4B5B6803F48033B3F5803F0BD1894B76
:10240C001B6803F40033002B6CD07B685B68002BDB
:10241C0068D1012346E27B685B68B3F5803F06D147
:10242C00804B1B687F4A43F4803313602EE07B683B
:10243C005B68002B0CD17B4B1B687A4A23F48033EE
:10244C001360784B1B68774A23F4802313601DE0DC
:10245C007B685B68B3F5A02F0CD1724B1B68714A7B
:10246C0043F4802313606F4B1B686E4A43F4803334
:10247C0013600BE06B4B1B686A4A23F480331360C8
:10248C00684B1B68674A23F4802313607B685B6886
:10249C00002B13D0FFF7FCFB386108E0FFF7F8FBCB
:1024AC0002463B69D31A642B01D90323FAE15D4B35
:1024BC001B6803F40033002BF0D014E0FFF7E8FBAB
:1024CC00386108E0FFF7E4FB02463B69D31A642B42
:1024DC0001D90323E6E1534B1B6803F40033002BB3
:1024EC00F0D100E000BF7B681B6803F00203002BF7
:1024FC0063D04C4B5B6803F00C03002B0BD0494BA7
:10250C005B6803F00C03082B1CD1464B5B6803F48F
:10251C008033002B16D1434B1B6803F00203002BB6
:10252C0005D07B681B69012B01D00123BAE13D4B1F
:10253C001B6823F0F8027B685B69DB0039491343A5
:10254C000B603AE07B681B69002B20D0364B0122D4
:10255C001A60FFF79DFB386108E0FFF799FB024614
:10256C003B69D31A022B01D903239BE12D4B1B682A
:10257C0003F00203002BF0D02A4B1B6823F0F80267
:10258C007B685B69DB00274913430B6015E0264B26
:10259C0000221A60FFF77CFB386108E0FFF778FB3C
:1025AC0002463B69D31A022B01D903237AE11D4B56
:1025BC001B6803F00203002BF0D17B681B6803F04F
:1025CC000803002B3AD07B689B69002B19D0174B62
:1025DC0001221A60FFF75CFB386108E0FFF758FB3B
:1025EC0002463B69D31A022B01D903235AE10D4B46
:1025FC005B6A03F00203002BF0D0012000F0D8FA44
:10260C001CE00A4B00221A60FFF742FB38610FE016
:10261C00FFF73EFB02463B69D31A022B08D9032372
:10262C0040E100BF001002400000424280044242E0
:10263C009E4B5B6A03F00203002BE9D17B681B689D
:10264C0003F00403002B00F0A6800023FB75974BCE
:10265C00DB6903F08053002B0DD1944BDB69934A5B
:10266C0043F08053D361914BDB6903F08053BB6023
:10267C00BB680123FB758E4B1B6803F48073002B26
:10268C0018D18B4B1B688A4A43F480731360FFF795
:10269C00FFFA386108E0FFF7FBFA02463B69D31AF0
:1026AC00642B01D90323FDE0814B1B6803F4807379
:1026BC00002BF0D07B68DB68012B06D17B4B1B6AAF
:1026CC007A4A43F0010313622DE07B68DB68002B30
:1026DC000CD1764B1B6A754A23F001031362734BC2
:1026EC001B6A724A23F0040313621CE07B68DB68EC
:1026FC00052B0CD16D4B1B6A6C4A43F0040313621F
:10270C006A4B1B6A694A43F0010313620BE0674B87
:10271C001B6A664A23F001031362644B1B6A634A0B
:10272C0023F0040313627B68DB68002B15D0FFF7E2
:10273C00AFFA38610AE0FFF7ABFA02463B69D31AED
:10274C0041F28832934201D90323ABE0574B1B6A09
:10275C0003F00203002BEED014E0FFF799FA386176
:10276C000AE0FFF795FA02463B69D31A41F2883228
:10277C00934201D9032395E04C4B1B6A03F00203EF
:10278C00002BEED1FB7D012B05D1484BDB69474A71
:10279C0023F08053D3617B68DB69002B00F08180D0
:1027AC00424B5B6803F00C03082B61D07B68DB6940
:1027BC00022B46D13F4B00221A60FFF769FA3861B1
:1027CC0008E0FFF765FA02463B69D31A022B01D9E0
:1027DC00032367E0354B1B6803F00073002BF0D12B
:1027EC007B681B6AB3F5803F08D1304B5B6823F4E0
:1027FC0000327B689B682D4913434B602B4B5B6805
:10280C0023F474127B68196A7B685B6A0B43274953
:10281C0013434B60274B01221A60FFF739FA3861DA
:10282C0008E0FFF735FA02463B69D31A022B01D9AF
:10283C00032337E01D4B1B6803F00073002BF0D013
:10284C002FE01C4B00221A60FFF722FA386108E0D7
:10285C00FFF71EFA02463B69D31A022B01D9032358
:10286C0020E0124B1B6803F00073002BF0D118E032
:10287C007B68DB69012B01D1012313E00B4B5B68F7
:10288C00FB60FB6803F480327B681B6A9A4206D1BA
:10289C00FB6803F470127B685B6A9A4201D00123D7
:1028AC0000E0002318461837BD4680BD00100240DA
:1028BC00007000406000424280B584B000AF786088
:1028CC0039607B68002B01D10123D0E06A4B1B6877
:1028DC0003F007033A689A4210D9674B1B6823F040
:1028EC00070265493B6813430B60634B1B6803F09D
:1028FC0007033A689A4201D00123B8E07B681B6851
:10290C0003F00203002B20D07B681B6803F0040348
:10291C00002B05D0594B5B68584A43F4E063536075
:10292C007B681B6803F00803002B05D0534B5B68D6
:10293C00524A43F460535360504B5B6823F0F002EF
:10294C007B689B684D4913434B607B681B6803F0A5
:10295C000103002B40D07B685B68012B07D1474BF0
:10296C001B6803F40033002B15D101237FE07B6837
:10297C005B68022B07D1414B1B6803F00073002BE3
:10298C0009D1012373E03D4B1B6803F00203002BBC
:10299C0001D101236BE0394B5B6823F003027B68A8
:1029AC005B68364913434B60FFF772F9F8600AE035
:1029BC00FFF76EF90246FB68D31A41F28832934254
:1029CC0001D9032353E02D4B5B6803F00C027B68A9
:1029DC005B689B009A42EBD1274B1B6803F0070303
:1029EC003A689A4210D2244B1B6823F00702224902
:1029FC003B6813430B60204B1B6803F007033A68DA
:102A0C009A4201D0012332E07B681B6803F0040377
:102A1C00002B08D0194B5B6823F4E0627B68DB6801
:102A2C00164913434B607B681B6803F00803002BAB
:102A3C0009D0124B5B6823F460527B681B69DB0086
:102A4C000E4913434B6000F021F802460B4B5B68B8
:102A5C001B0903F00F030A49CB5C22FA03F3094A62
:102A6C001360094B1B681846FFF7D0F80023184673
:102A7C001037BD4680BD00BF002002400010024050
:102A8C00404C0008280000202C00002090B48AB094
:102A9C0000AF2A4B3C1D0FCB84E80F0040F2012302
:102AAC003B800023FB610023BB6100237B6200237E
:102ABC007B6100233B62224B5B68FB61FB6903F08B
:102ACC000C03042B02D0082B03D02DE01D4B3B62D2
:102ADC002DE0FB699B0C03F00F0307F12802134454
:102AEC0013F8243C7B61FB6903F48033002B13D077
:102AFC00134B5B685B0C03F0010307F128021344D2
:102B0C0013F8283CBB617B690E4A02FB03F2BB69DC
:102B1C00B2FBF3F37B6204E07B690B4A02FB03F329
:102B2C007B627B6A3B6202E0064B3B6200BF3B6A06
:102B3C0018462837BD4690BC704700BF304C000883
:102B4C000010024000127A0000093D0080B400AF72
:102B5C00024B1B681846BD4680BC704728000020FD
:102B6C0080B500AFFFF7F2FF0246054B5B681B0A0E
:102B7C0003F007030349CB5C22FA03F3184680BD2C
:102B8C0000100240504C000880B500AFFFF7DEFF8C
:102B9C000246054B5B68DB0A03F007030349CB5C79
:102BAC0022FA03F3184680BD00100240504C000876
:102BBC0080B485B000AF78600A4B1B680A4AA2FB50
:102BCC0003235B0A7A6802FB03F3FB6000BFFB681C
:102BDC005A1EFA60002BF9D100BF00BF1437BD4656
:102BEC0080BC704728000020D34D621080B582B0A5
:102BFC0000AF78607B68002B01D1012341E07B683A
:102C0C0093F83D30DBB2002B06D17B68002283F8B1
:102C1C003C207868FEF7F8FB7B68022283F83D20A5
:102C2C007B681A687B6804331946104600F028FC50
:102C3C007B68012283F846207B68012283F83E20C2
:102C4C007B68012283F83F207B68012283F84020B7
:102C5C007B68012283F841207B68012283F84220A3
:102C6C007B68012283F843207B68012283F844208F
:102C7C007B68012283F845207B68012283F83D2084
:102C8C00002318460837BD4680BD000080B485B0CF
:102C9C0000AF78607B6893F83D30DBB2012B01D03C
:102CAC0001233AE07B68022283F83D207B681B6895
:102CBC00DA687B681B6842F00102DA607B681B688B
:102CCC00184A93420ED07B681B68B3F1804F09D031
:102CDC007B681B68144A934204D07B681B68134AB8
:102CEC00934211D17B681B689B6803F00703FB6060
:102CFC00FB68062B10D07B681B681A687B681B6806
:102D0C0042F001021A6007E07B681B681A687B6856
:102D1C001B6842F001021A60002318461437BD46A6
:102D2C0080BC7047002C01400004004000080040AB
:102D3C0080B582B000AF78607B68002B01D1012395
:102D4C0041E07B6893F83D30DBB2002B06D17B6809
:102D5C00002283F83C20786800F039F87B68022266
:102D6C0083F83D207B681A687B680433194610464B
:102D7C0000F086FB7B68012283F846207B680122E9
:102D8C0083F83E207B68012283F83F207B68012278
:102D9C0083F840207B68012283F841207B68012264
:102DAC0083F842207B68012283F843207B68012250
:102DBC0083F844207B68012283F845207B6801223C
:102DCC0083F83D20002318460837BD4680BD80B4EB
:102DDC0083B000AF786000BF0C37BD4680BC704735
:102DEC0080B584B000AF786039603B68002B09D1A6
:102DFC007B6893F83E30DBB2012B14BF0123002318
:102E0C00DBB222E03B68042B09D17B6893F83F309E
:102E1C00DBB2012B14BF01230023DBB215E03B68AE
:102E2C00082B09D17B6893F84030DBB2012B14BF1F
:102E3C0001230023DBB208E07B6893F84130DBB25E
:102E4C00012B14BF01230023DBB2002B01D0012383
:102E5C005EE03B68002B04D17B68022283F83E20A5
:102E6C0013E03B68042B04D17B68022283F83F20DB
:102E7C000BE03B68082B04D17B68022283F84020CE
:102E8C0003E07B68022283F841207B681B680122E7
:102E9C003968184600F074FD7B681B681E4A934223
:102EAC0007D17B681B685A6C7B681B6842F4004234
:102EBC005A647B681B68184A93420ED07B681B6867
:102ECC00B3F1804F09D07B681B68144A934204D03D
:102EDC007B681B68124A934211D17B681B689B6804
:102EEC0003F00703FB60FB68062B10D07B681B68A4
:102EFC001A687B681B6842F001021A6007E07B6865
:102F0C001B681A687B681B6842F001021A60002378
:102F1C0018461037BD4680BD002C0140000400400F
:102F2C000008004080B582B000AF78607B681B68F9
:102F3C001B6903F00203022B22D17B681B68DB6840
:102F4C0003F00203022B1BD17B681B686FF002029B
:102F5C001A617B6801221A777B681B689B6903F0F6
:102F6C000303002B03D0786800F06FFA05E0786853
:102F7C0000F062FA786800F071FA7B6800221A7728
:102F8C007B681B681B6903F00403042B22D17B684C
:102F9C001B68DB6803F00403042B1BD17B681B68E4
:102FAC006FF004021A617B6802221A777B681B6837
:102FBC009B6903F44073002B03D0786800F045FA4A
:102FCC0005E0786800F038FA786800F047FA7B681A
:102FDC0000221A777B681B681B6903F00803082B17
:102FEC0022D17B681B68DB6803F00803082B1BD11C
:102FFC007B681B686FF008021A617B6804221A77E1
:10300C007B681B68DB6903F00303002B03D0786833
:10301C0000F01BFA05E0786800F00EFA786800F012
:10302C001DFA7B6800221A777B681B681B6903F00A
:10303C001003102B22D17B681B68DB6803F0100394
:10304C00102B1BD17B681B686FF010021A617B6818
:10305C0008221A777B681B68DB6903F44073002B2A
:10306C0003D0786800F0F1F905E0786800F0E4F935
:10307C00786800F0F3F97B6800221A777B681B688C
:10308C001B6903F00103012B0ED17B681B68DB6805
:10309C0003F00103012B07D17B681B686FF0010261
:1030AC001A617868FEF77AFB7B681B681B6903F072
:1030BC008003802B0ED17B681B68DB6803F08003D8
:1030CC00802B07D17B681B686FF080021A617868CF
:1030DC0000F0E1FC7B681B681B6903F04003402B8C
:1030EC000ED17B681B68DB6803F04003402B07D1D3
:1030FC007B681B686FF040021A61786800F0B7F9C2
:10310C007B681B681B6903F02003202B0ED17B68A6
:10311C001B68DB6803F02003202B07D17B681B683E
:10312C006FF020021A61786800F0ACFC00BF083721
:10313C00BD4680BD80B584B000AFF860B9607A60E0
:10314C00FB6893F83C30012B01D10223ACE0FB6807
:10315C00012283F83C207B680C2B00F29F8001A29B
:10316C0052F823F0A5310008A9320008A932000852
:10317C00A9320008E5310008A9320008A93200087C
:10318C00A932000827320008A9320008A932000829
:10319C00A932000867320008FB681B68B96818463A
:1031AC0000F0D0F9FB681B689A69FB681B6842F059
:1031BC0008029A61FB681B689A69FB681B6822F01D
:1031CC0004029A61FB681B689969BB681A69FB6801
:1031DC001B680A439A6162E0FB681B68B968184671
:1031EC0000F016FAFB681B689A69FB681B6842F4CE
:1031FC0000629A61FB681B689A69FB681B6822F481
:10320C0080629A61FB681B689969BB681B691A022A
:10321C00FB681B680A439A6141E0FB681B68B9684C
:10322C00184600F05FFAFB681B68DA69FB681B68DC
:10323C0042F00802DA61FB681B68DA69FB681B68FC
:10324C0022F00402DA61FB681B68D969BB681A6951
:10325C00FB681B680A43DA6121E0FB681B68B968EC
:10326C00184600F0A9FAFB681B68DA69FB681B6852
:10327C0042F40062DA61FB681B68DA69FB681B6860
:10328C0022F48062DA61FB681B68D969BB681B6930
:10329C001A02FB681B680A43DA6100E000BFFB6896
:1032AC00002283F83C20002318461037BD4680BD11
:1032BC0080B584B000AF786039607B6893F83C309F
:1032CC00012B01D10223B3E07B68012283F83C205F
:1032DC007B68022283F83D207B681B689B68FB603F
:1032EC00FB6823F07703FB60FB6823F47F43FB60F0
:1032FC007B681B68FA689A603B681B68B3F5005FD3
:10330C003ED0B3F5005F00F28780B3F5805F00F02C
:10331C008580B3F5805F7FD8702B1AD0702B7BD84B
:10332C00602B50D0602B77D8502B3CD0502B73D8BF
:10333C00402B58D0402B6FD8302B64D0302B6BD80F
:10334C00202B60D0202B67D8002B5CD0102B5AD0B0
:10335C0062E07B6818683B6899683B685A683B6810
:10336C00DB6800F0EEFA7B681B689B68FB60FB680F
:10337C0043F07703FB607B681B68FA689A604EE049
:10338C007B6818683B6899683B685A683B68DB68DF
:10339C0000F0D7FA7B681B689A687B681B6842F45C
:1033AC0080429A603BE07B6818683B6859683B68D0
:1033BC00DB681A4600F04EFA7B681B6850211846F1
:1033CC0000F0A5FA2BE07B6818683B6859683B68ED
:1033DC00DB681A4600F06CFA7B681B6860211846A3
:1033EC0000F095FA1BE07B6818683B6859683B68ED
:1033FC00DB681A4600F02EFA7B681B6840211846E1
:10340C0000F085FA0BE07B681A683B681B6819466C
:10341C00104600F07CFA02E000BF00E000BF7B68C1
:10342C00012283F83D207B68002283F83C20002396
:10343C0018461037BD4680BD80B483B000AF7860AD
:10344C0000BF0C37BD4680BC704780B483B000AF62
:10345C00786000BF0C37BD4680BC704780B483B029
:10346C0000AF786000BF0C37BD4680BC704780B49D
:10347C0083B000AF786000BF0C37BD4680BC70478E
:10348C0080B485B000AF786039607B681B68FB60E6
:10349C007B68294A93420BD07B68B3F1804F07D0ED
:1034AC007B68264A934203D07B68254A934208D115
:1034BC00FB6823F07003FB603B685B68FA6813439E
:1034CC00FB607B681C4A93420BD07B68B3F1804F46
:1034DC0007D07B68194A934203D07B68184A934201
:1034EC0008D1FB6823F44073FB603B68DB68FA6827
:1034FC001343FB60FB6823F080023B685B6913435A
:10350C00FB607B68FA681A603B689A687B68DA62D1
:10351C003B681A687B689A627B68074A934203D1BE
:10352C003B681A697B681A637B6801225A6100BF89
:10353C001437BD4680BC7047002C0140000400408D
:10354C000008004080B487B000AF786039607B68B9
:10355C001B6A23F001027B681A627B681B6A7B6121
:10356C007B685B683B617B689B69FB60FB6823F055
:10357C007003FB60FB6823F00303FB603B681B6874
:10358C00FA681343FB607B6923F002037B613B68A1
:10359C009B687A6913437B617B681C4A93420CD10C
:1035AC007B6923F008037B613B68DB687A69134312
:1035BC007B617B6923F004037B617B68134A934234
:1035CC0011D13B6923F480733B613B6923F4007395
:1035DC003B613B685B693A6913433B613B689B69A0
:1035EC003A6913433B617B683A695A607B68FA68B5
:1035FC009A613B685A687B685A637B687A691A627D
:10360C0000BF1C37BD4680BC704700BF002C01407A
:10361C0080B487B000AF786039607B681B6A23F098
:10362C0010027B681A627B681B6A7B617B685B6833
:10363C003B617B689B69FB60FB6823F4E043FB60A8
:10364C00FB6823F44073FB603B681B681B02FA6841
:10365C001343FB607B6923F020037B613B689B6811
:10366C001B017A6913437B617B681D4A93420DD120
:10367C007B6923F080037B613B68DB681B017A6903
:10368C0013437B617B6923F040037B617B68144AA5
:10369C00934213D13B6923F480633B613B6923F470
:1036AC0000633B613B685B699B003A6913433B6178
:1036BC003B689B699B003A6913433B617B683A69A1
:1036CC005A607B68FA689A613B685A687B689A63AF
:1036DC007B687A691A6200BF1C37BD4680BC704794
:1036EC00002C014080B487B000AF786039607B68F3
:1036FC001B6A23F480727B681A627B681B6A7B618D
:10370C007B685B683B617B68DB69FB60FB6823F073
:10371C007003FB60FB6823F00303FB603B681B68D2
:10372C00FA681343FB607B6923F400737B613B688D
:10373C009B681B027A6913437B617B681D4A934229
:10374C000DD17B6923F400637B613B68DB681B0252
:10375C007A6913437B617B6923F480637B617B68AB
:10376C00144A934213D13B6923F480533B613B6968
:10377C0023F400533B613B685B691B013A691343BB
:10378C003B613B689B691B013A6913433B617B6856
:10379C003A695A607B68FA68DA613B685A687B68F8
:1037AC00DA637B687A691A6200BF1C37BD4680BC3D
:1037BC00704700BF002C014080B487B000AF786028
:1037CC0039607B681B6A23F480527B681A627B68C1
:1037DC001B6A3B617B685B687B617B68DB69FB60B8
:1037EC00FB6823F4E043FB60FB6823F44073FB604D
:1037FC003B681B681B02FA681343FB603B6923F4AC
:10380C0000533B613B689B681B033A6913433B6164
:10381C007B680F4A934209D17B6923F480437B6117
:10382C003B685B699B017A6913437B617B687A69AE
:10383C005A607B68FA68DA613B685A687B681A647C
:10384C007B683A691A6200BF1C37BD4680BC704762
:10385C00002C014080B487B000AFF860B9607A608A
:10386C00FB681B6A7B61FB681B6A23F00102FB6827
:10387C001A62FB689B693B613B6923F0F0033B6177
:10388C007B681B013A6913433B617B6923F00A0394
:10389C007B617A69BB6813437B61FB683A699A6107
:1038AC00FB687A691A6200BF1C37BD4680BC704742
:1038BC0080B487B000AFF860B9607A60FB681B6AAF
:1038CC0023F01002FB681A62FB689B697B61FB6842
:1038DC001B6A3B617B6923F470437B617B681B0330
:1038EC007A6913437B613B6923F0A0033B61BB689E
:1038FC001B013A6913433B61FB687A699A61FB6867
:10390C003A691A6200BF1C37BD4680BC704780B450
:10391C0085B000AF786039607B689B68FB60FB68A2
:10392C0023F07003FB603A68FB68134343F0070312
:10393C00FB607B68FA689A6000BF1437BD4680BC98
:10394C00704780B487B000AFF860B9607A603B60B4
:10395C00FB689B687B617B6923F47F437B613B68DD
:10396C001A027B681A43BB6813437A6913437B6161
:10397C00FB687A699A6000BF1C37BD4680BC7047F3
:10398C0080B487B000AFF860B9607A60BB6803F0B0
:10399C001F03012202FA03F37B61FB681A6A7B693D
:1039AC00DB431A40FB681A62FB681A6ABB6803F0B7
:1039BC001F03796801FA03F31A43FB681A6200BF0C
:1039CC001C37BD4680BC704780B485B000AF7860B2
:1039DC0039607B6893F83C30012B01D1022346E01F
:1039EC007B68012283F83C207B68022283F83D200F
:1039FC007B681B685B68FB607B681B689B68BB60B3
:103A0C00FB6823F07003FB603B681B68FA68134388
:103A1C00FB607B681B68FA685A607B681B68164AF7
:103A2C0093420ED07B681B68B3F1804F09D07B6842
:103A3C001B68124A934204D07B681B68104A93425D
:103A4C000CD1BB6823F08003BB603B685B68BA6831
:103A5C001343BB607B681B68BA689A607B68012261
:103A6C0083F83D207B68002283F83C200023184615
:103A7C001437BD4680BC7047002C01400004004048
:103A8C000008004080B483B000AF786000BF0C37F2
:103A9C00BD4680BC704780B483B000AF786000BF77
:103AAC000C37BD4680BC704780B582B000AF7860E3
:103ABC007B68002B01D101233FE07B6893F83D30FC
:103ACC00DBB2002B06D17B68002283F83C2078689F
:103ADC00FDF704FD7B68242283F83D207B681B687E
:103AEC00DA687B681B6822F40052DA60786800F0B0
:103AFC008DFB7B681B681A697B681B6822F49042FB
:103B0C001A617B681B685A697B681B6822F02A0261
:103B1C005A617B681B68DA687B681B6842F4005248
:103B2C00DA607B6800221A647B68202283F83D20CF
:103B3C007B68202283F83E20002318460837BD46B8
:103B4C0080BD80B485B000AFF860B9601346FB80CF
:103B5C00FB6893F83D30DBB2202B30D1BB68002BD7
:103B6C0002D0FB88002B01D1012329E0FB6893F8DC
:103B7C003C30012B01D1022322E0FB68012283F8A7
:103B8C003C20FB68BA681A62FB68FA889A84FB6866
:103B9C00FA88DA84FB6800221A64FB68212283F815
:103BAC003D20FB68002283F83C20FB681B68DA6828
:103BBC00FB681B6842F08002DA60002300E00223FD
:103BCC0018461437BD4680BC7047000080B58AB0DB
:103BDC0000AF78607B681B681B687B627B681B6826
:103BEC00DB683B627B681B685B69FB610023BB6124
:103BFC0000237B617B6A03F00F03BB61BB69002B65
:103C0C000DD17B6A03F02003002B08D03B6A03F034
:103C1C002003002B03D0786800F04FFA7BE1BB69DE
:103C2C00002B00F0B180FB6903F00103002B05D1E0
:103C3C003B6A03F49073002B00F0A6807B6A03F0C0
:103C4C000103002B0AD03B6A03F48073002B05D0D0
:103C5C007B681B6C43F001027B681A647B6A03F07F
:103C6C000403002B0AD0FB6903F00103002B05D0E1
:103C7C007B681B6C43F002027B681A647B6A03F05E
:103C8C000203002B0AD0FB6903F00103002B05D0C3
:103C9C007B681B6C43F004027B681A647B6A03F03C
:103CAC000803002B0FD03B6A03F02003002B04D138
:103CBC00FB6903F00103002B05D07B681B6C43F000
:103CCC0008027B681A647B681B6C002B00F01E8159
:103CDC007B6A03F02003002B07D03B6A03F0200320
:103CEC00002B02D0786800F0E8F97B681B685B69F0
:103CFC0003F04003002B14BF01230023DBB27B61D4
:103D0C007B681B6C03F00803002B02D17B69002B32
:103D1C0031D0786800F02AF97B681B685B6903F086
:103D2C004003002B23D07B681B685A697B681B6897
:103D3C0022F040025A617B689B6B002B13D07B688E
:103D4C009B6B764A5A637B689B6B1846FEF7F2F8BE
:103D5C000346002B16D07B689B6B5B6B7A68926B6F
:103D6C00104698470EE0786800F0ECF80AE07868A6
:103D7C0000F0E8F806E0786800F0E4F87B680022D0
:103D8C001A64C3E000BFC1E07B681B6B012B40F0E1
:103D9C00A1807B6A03F01003002B00F09B803B6A30
:103DAC0003F01003002B00F095800023FB607B6870
:103DBC001B681B68FB607B681B685B68FB60FB68AF
:103DCC007B681B685B6903F04003002B4ED07B685B
:103DDC009B6B1B685B683B823B8A002B00F09880D6
:103DEC007B689B8D3A8A9A4280F092807B683A8AF3
:103DFC00DA857B689B6B9B69202B2BD07B681B68BF
:103E0C00DA687B681B6822F48072DA607B681B6856
:103E1C005A697B681B6822F001025A617B681B6837
:103E2C005A697B681B6822F040025A617B68202229
:103E3C0083F83E207B6800221A637B681B68DA6873
:103E4C007B681B6822F01002DA607B689B6B18465B
:103E5C00FEF735F87B689A8D7B68DB8D9BB2D31AA5
:103E6C009BB21946786800F076F851E07B689A8D21
:103E7C007B68DB8D9BB2D31A7B827B68DB8D9BB21C
:103E8C00002B47D07B8A002B44D07B681B68DA68F8
:103E9C007B681B6822F49072DA607B681B685A6935
:103EAC007B681B6822F001025A617B68202283F830
:103EBC003E207B6800221A637B681B68DA687B688B
:103ECC001B6822F01002DA607B8A1946786800F0D1
:103EDC0042F81FE07B6A03F08003002B08D03B6A9A
:103EEC0003F08003002B03D0786800F07FF812E019
:103EFC007B6A03F04003002B0DD03B6A03F04003B8
:103F0C00002B08D0786800F0C0F804E000BF02E095
:103F1C0000BF00E000BF2837BD4680BDD13F000880
:103F2C0080B483B000AF786000BF0C37BD4680BC56
:103F3C00704780B483B000AF786000BF0C37BD46CB
:103F4C0080BC704780B483B000AF786000BF0C3782
:103F5C00BD4680BC704780B483B000AF78600B4620
:103F6C007B8000BF0C37BD4680BC704780B483B0EB
:103F7C0000AF78607B681B68DA687B681B6822F48A
:103F8C009072DA607B681B685A697B681B6822F048
:103F9C0001025A617B681B6B012B07D17B681B6884
:103FAC00DA687B681B6822F01002DA607B682022DA
:103FBC0083F83E207B6800221A6300BF0C37BD4695
:103FCC0080BC704780B584B000AF78607B685B6A5A
:103FDC00FB60FB680022DA85FB680022DA84F86853
:103FEC00FFF7B0FF00BF1037BD4680BD80B485B071
:103FFC0000AF78607B6893F83D30DBB2212B3ED16B
:10400C007B689B68B3F5805F14D17B681B69002BC0
:10401C0010D17B681B6AFB60FB681B881A467B68A7
:10402C001B68C2F308025A607B681B6A9A1C7B6887
:10403C001A6208E07B681B6A591C7A6811621A784C
:10404C007B681B685A607B68DB8C9BB2013B9BB224
:10405C007A681946D184002B0FD17B681B68DA680B
:10406C007B681B6822F08002DA607B681B68DA6868
:10407C007B681B6842F04002DA60002300E00223F8
:10408C0018461437BD4680BC704780B582B000AF6F
:10409C0078607B681B68DA687B681B6822F04002DA
:1040AC00DA607B68202283F83D207868FFF738FFC0
:1040BC00002318460837BD4680BD80B586B000AFDA
:1040CC0078607B6893F83E30DBB2222B40F099800D
:1040DC007B689B68B3F5805F17D17B681B69002BED
:1040EC0013D100237B617B689B6A3B617B681B68F7
:1040FC005B689BB2C3F308039AB23B691A807B6876
:10410C009B6A9A1C7B689A6226E07B689B6A7B613F
:10411C0000233B617B689B68B3F5805F07D07B68AD
:10412C009B68002B0AD17B681B69002B06D17B682E
:10413C001B685B68DAB27B691A7008E07B681B68E5
:10414C005B68DBB203F07F03DAB27B691A707B68C1
:10415C009B6A5A1C7B689A627B68DB8D9BB2013B25
:10416C009BB27A681946D185002B48D17B681B68B5
:10417C00DA687B681B6822F02002DA607B681B68B7
:10418C00DA687B681B6822F48072DA607B681B68D3
:10419C005A697B681B6822F001025A617B682022F5
:1041AC0083F83E207B681B6B012B23D17B6800229C
:1041BC001A637B681B68DA687B681B6822F0100244
:1041CC00DA607B681B681B6803F01003102B0AD1A4
:1041DC000023FB607B681B681B68FB607B681B68AB
:1041EC005B68FB60FB687B689B8D19467868FFF702
:1041FC00B2FE02E07868FFF79CFE002302E0002389
:10420C0000E0022318461837BD4680BD80B584B047
:10421C0000AF78607B681B681B6923F440517B6896
:10422C00DA687B681B680A431A617B689A687B684A
:10423C001B691A437B685B691343BB607B681B6813
:10424C00DB6823F4B05323F00C037A681268B96866
:10425C000B43D3607B681B685B6923F440717B68FC
:10426C009A697B681B680A435A617B681B682C4AF5
:10427C00934203D1FEF788FCF86002E0FEF770FC75
:10428C00F860FA6813469B0013449A001A447B6842
:10429C005B689B00B2FBF3F3224AA2FB03235B098E
:1042AC001901FA6813469B0013449A001A447B6860
:1042BC005B689B00B2FBF3F21A4BA3FB02035B0996
:1042CC00642000FB03F3D31A1B013233154AA2FB03
:1042DC0003235B0903F0F0031944FA6813469B00AF
:1042EC0013449A001A447B685B689B00B2FBF3F2A0
:1042FC000C4BA3FB02035B09642000FB03F3D31AF2
:10430C001B013233074AA2FB03235B0903F00F02A4
:10431C007B681B680A449A6000BF1037BD4680BD9D
:10432C00003801401F85EB51014B1868704700BFE6
:10433C003400002070B500260C4D0D4C641BA410ED
:10434C00A64209D100F05CFC00260A4D0A4C641B05
:10435C00A410A64205D170BD55F8043B9847013610
:10436C00EEE755F8043B98470136F2E78C4C000811
:10437C008C4C00088C4C0008904C000803460244FE
:10438C00934200D1704703F8011BF9E70EB46FF0AC
:10439C00004100B59CB01DAB0290069007910491B2
:1043AC000848094953F8042B0591006802A90193A8
:1043BC0000F068F80022029B1A701CB05DF804EB48
:1043CC0003B07047340000200802FFFF2DE9F047CE
:1043DC008E6882469E420C4690461F4638D88A8983
:1043EC0012F4906F32D0256809690133A5EB0109ED
:1043FC0065694B4405EB450505EBD5756D109D4284
:10440C0038BF1D46530531D5294600F053FB0646EF
:10441C0050B90C234FF0FF30CAF80030A38943F099
:10442C004003A381BDE8F0874A46216900F0CEFA2B
:10443C00A38923F4906343F08003A38126614E4447
:10444C0026603E466561A5EB0905A560BE4200D914
:10445C003E4632464146206800F0C6FAA368226800
:10446C009B1B32440020A3602260DBE72A4600F04D
:10447C007BFB06460028E1D15046216900F0CEFABC
:10448C00C7E700002DE9F04F98468B8907461B06BD
:10449C000D4614469DB00ED50B6963B9402100F052
:1044AC0009FB2860286120B90C233B604FF0FF30DA
:1044BC00D1E040236B610023099320238DF8293030
:1044CC0030234FF00109CDF80C80DFF8A4818DF872
:1044DC002A3023469A4613F8012B0AB1252AF9D122
:1044EC00BAEB040B0BD05B46224629463846FFF745
:1044FC006DFF013000F0AA80099A5A4409929AF88B
:10450C000030002B00F0A28000234FF0FF32CDE9E9
:10451C0005230AF1010A049307938DF853301A937B
:10452C005446052214F8011B514800F041FA049A34
:10453C00D8B9D00644BF20238DF85330110744BF9F
:10454C002B238DF853309AF800302A2B15D0544673
:10455C0000204FF00A0C079A214611F8013B303B22
:10456C00092B4ED9B0B1079214E0A0EB080309FA5D
:10457C0003F31343A2460493D2E7039B191D1B6854
:10458C000391002BBBBF5B4242F0020207930793DF
:10459C00B8BF049223782E2B0CD163782A2B35D1FB
:1045AC00039B02341A1D1B680392002BB8BF4FF0FB
:1045BC00FF330593DFF8C8A003225046217800F0A2
:1045CC00F7F940B14023A0EB0A0003FA00F0049B7A
:1045DC0001340343049314F8011B062225488DF87B
:1045EC00281000F0E5F9002838D0234B1BBB039BA7
:1045FC00073323F0070308330393099B33440993D0
:10460C0067E70C4601200CFB0232A5E700234FF0B4
:10461C000A0C194601340593204610F8012B303A48
:10462C00092A03D9002BC5D00591C3E70446012301
:10463C000CFB0121F0E703AB00932A4638460F4BE5
:10464C0004A9AFF30080421C0646D6D1AB895B06A9
:10465C003FF52CAF09981DB0BDE8F08F03AB00936C
:10466C002A463846054B04A900F07CF8EBE700BF5E
:10467C00584C0008624C000800000000D9430008A8
:10468C005E4C00082DE9F047164699468A680B697E
:10469C0007469342B8BF1346336091F843200C464B
:1046AC00DDF820800AB1013333602368990642BFDC
:1046BC00336802333360256815F0060506D104F122
:1046CC00190AE36832689B1AAB4228DC94F8432041
:1046DC00131E226818BF012392062DD44946384672
:1046EC0004F14302C047013020D02368E56803F091
:1046FC000603042B18BF002532684FF00006A36890
:10470C0008BFAD1A226908BF25EAE5759342C4BFFC
:10471C009B1AED181A34B5421AD1002008E0012377
:10472C00524649463846C047013003D14FF0FF305E
:10473C00BDE8F0870135C4E73020E11881F843006B
:10474C005A1C94F845102244023382F84310C5E7F2
:10475C000123224649463846C0470130E6D001368F
:10476C00D9E700002DE9FF470C46277E9146782FAC
:10477C0080469A460C9904F1430207D8622F0AD856
:10478C00002F00F0D980582F00F0A48004F14206CD
:10479C0084F842703AE0A7F16303152BF6D801A018
:1047AC0050F823F0094800081D48000899470008F4
:1047BC009947000899470008994700081D480008C8
:1047CC00994700089947000899470008994700083D
:1047DC002B4900084D4800080D490008994700086E
:1047EC00994700084D490008994700084D480008B2
:1047FC009947000899470008154900080B6804F10F
:10480C0042061A1D1B680A6084F842300123A4E09A
:10481C00256808682E0600F104030AD505680B60AC
:10482C00002D03DA2D236D4284F843300A235E48B1
:10483C0019E015F0400F05680B6018BF2DB2EFE7BB
:10484C000B682568181D0860280601D51D6802E054
:10485C006906FBD51D886F2F0CBF08230A2352480D
:10486C00002184F843106668002EA8BF2168A6605A
:10487C00A4BF21F0040121600DB9002E4DD01646C5
:10488C00B5FBF3F103FB1157C75D06F8017D2F460D
:10489C00BB420D46F4D9082B0BD12368DF0708D592
:1048AC00236961689942DEBF302306F8013C06F1AA
:1048BC00FF36921B22614B4621464046CDF800A0A4
:1048CC0003AAFFF7DFFE01304CD14FF0FF3004B0EC
:1048DC00BDE8F087344884F845700E68236856F8B4
:1048EC00045B1F060E6014D5D90744BF43F02003A8
:1048FC0023601DB9236823F0200323601023AFE746
:10490C00236843F0200323607823284884F845303B
:10491C00E3E75E0648BFADB2E6E71646BBE70B68B9
:10492C0026681D1D60690D6035061B6801D5186071
:10493C0002E07106FBD51880002316462361BAE706
:10494C000B681A1D0A601E6800213046626800F070
:10495C002FF808B1801B606063682361002384F822
:10496C004330A8E73246494640462369D0470130D8
:10497C00ABD023689B0713D4E068039B9842B8BF65
:10498C001846A4E70123324649464046D047013039
:10499C009BD00135E36803995B1AAB42F2DCEBE781
:1049AC00002504F11906F5E7694C00087A4C00085B
:1049BC00034610B5C9B202449342184601D10020F7
:1049CC0003E0047801338C42F6D110BD0A449142C5
:1049DC0000F1FF3300D1704710B511F8014B914233
:1049EC0003F8014FF9D110BD884210B501EB020458
:1049FC0002D98442234607D8431EA14208D011F89D
:104A0C00012B03F8012FF8E7014602448A4200D13A
:104A1C0010BD13F8014D02F8014DF7E738B5054606
:104A2C00002943D051F8043C0C1F002BB8BFE418EC
:104A3C0000F0D0F81E4A1368104633B96360146056
:104A4C002846BDE8384000F0CBB8A3420AD921680B
:104A5C006218934201BF1A685B6852182260636047
:104A6C000460EDE71A465B680BB1A342FAD91168F2
:104A7C005018A0420BD12068014450188342116099
:104A8C00DED118685B68014411605360D8E702D925
:104A9C000C232B60D4E7206821188B4201BF1968C6
:104AAC005B680918216063605460C9E738BD00BFBA
:104ABC004C010020F8B5CD1C25F0030508350C2D54
:104ACC0038BF0C25002D064601DBA94203D90C2367
:104ADC0033600020F8BD00F07DF821490A681446C7
:104AEC009CB9204F3B6823B92146304600F062F850
:104AFC0038602946304600F05DF8431C23D10C2366
:104B0C003046336000F06CF8E3E723685B1B17D486
:104B1C000B2B03D923601C44256004E06368A2427C
:104B2C000CBF0B605360304600F05AF804F10B00D8
:104B3C00231D20F00700C21ACCD01B1AA350C9E7C2
:104B4C0022466468CCE7C41C24F00304A042E3D0E2
:104B5C00211A304600F02EF80130DDD1CFE700BF2E
:104B6C004C01002050010020F8B5074614460E46B3
:104B7C0021B91146BDE8F840FFF79CBF22B9FFF7F9
:104B8C004DFF25462846F8BD00F030F8A0420FD264
:104B9C0021463846FFF78EFF05460028F2D03146F5
:104BAC002246FFF713FF31463846FFF737FFE9E798
:104BBC003546E7E738B50023054D044608462B601B
:104BCC00FCF71AFD431C02D12B6803B1236038BDDE
:104BDC004C050020014800F011B800BF540500201E
:104BEC00014800F00CB800BF5405002051F8043CFB
:104BFC00181F002BBCBF0B58C0187047704770476C
:104C0C00F8B500BFF8BC08BC9E467047F8B500BFAD
:084C1C00F8BC08BC9E4670477D
:104C240021375345473A25642564230002030405CC
:104C3400060708090A0B0C0D0E0F101000000000E7
:104C44000000000001020304060708090000000038
:104C540001020304232D302B2000686C4C00656690
:104C640067454647003031323334353637383941B9
:104C740042434445460030313233343536373839CF
:084C84006162636465660000D3
:044C8C0031010008EA
:044C90000D0100080A
:104C94000C0000000C0000000C0000000C000000E0
:104CA40005000000030000000200000005000000F1
:104CB40003000000020000000024F40010000000C3
:104CC4000100000038000020000000000000000087
:104CD40000000000000000000000000000000000D0
:104CE40000000000000000000000000000000000C0
:104CF40000000000000000000000000000000000B0
:104D0400000000000000000000000000000000009F
:104D1400000000000000000000000000000000008F
:084D2400000000000000000087
:0400000508001BA133
:00000001FF
