:020000040800F2
:1000000000500020D5140008591000085F100008A7
:10001000651000086B100008711000080000000057
:100020000000000000000000000000007710000841
:1000300083100008000000008F1000089B100008CB
:100040001D1500081D1500081D1500081D150008C8
:100050001D1500081D1500081D1500081D150008B8
:100060001D1500081D1500081D1500081D150008A8
:100070001D1500081D1500081D1500081D15000898
:100080001D1500081D1500081D1500081D15000888
:100090001D1500081D1500081D1500081D15000878
:1000A0001D1500081D1500081D1500081D15000868
:1000B0001D1500081D1500081D1500081D15000858
:1000C0001D1500081D1500081D1500081D15000848
:1000D0001D1500081D150008A91000081D150008B1
:1000E0001D1500081D1500081D1500080000000062
:1000F0000000000000000000000000000000000000
:0C01000000000000000000005FF808F1A3
:10010C0010B5054C237833B9044B13B10448AFF345
:10011C0000800123237010BD880000200000000027
:10012C00D03B000808B5034B1BB103490348AFF3A0
:10013C00008008BD000000008C000020D03B0008AF
:10014C0080B483B000AF7860094A7B6852F82330E2
:10015C00012B06D1064A7B68002142F823100123AB
:10016C0000E0002318460C37BD4680BC704700BF2A
:10017C00A400002080B500AF914B1B68013B042B01
:10018C0000F21B8101A252F823F000BFAD01000860
:10019C00D101000847020008C50200083D03000811
:1001AC00874B02221A604FF47A7000F0BDFF854B2A
:1001BC001B68854A136001F059F900F0D1FF01F07A
:1001CC001BF8FAE00020FFF7BBFF0220FFF7B8FF97
:1001DC000320FFF7B5FF7D4B1B68012B15D17A4B24
:1001EC001B68013B784A13604FF47A7000F09CFF57
:1001FC00754B1A68764B1B689A4204D101F020F8B3
:10020C006F4B03221A6001F031F90120FFF798FFC0
:10021C000346002B00F0CA80694B0B221A604EF685
:10022C00602000F081FF00F09BFF00F0E5FF664BC3
:10023C0063221A6001F01AF9BFE00020FFF780FF7B
:10024C000220FFF77DFF0320FFF77AFF5F4B1B684F
:10025C00012B19D15C4B1B68013B5B4A13604FF4BB
:10026C007A7000F061FF584B1B68002B0AD1594B78
:10027C001B68554A136000F097FF00F085FF504B48
:10028C0004221A6001F0F2F80120FFF759FF03462F
:10029C00002B00F08D804A4B0B221A604EF660202A
:1002AC0000F042FF00F05CFF00F0A6FF464B63221B
:1002BC001A6001F0DBF880E00020FFF741FF02201C
:1002CC00FFF73EFF0320FFF73BFF404B1B68012B62
:1002DC0017D13D4B1B68013B3B4A13604FF47A70BE
:1002EC0000F022FF384B1B68002B08D13A4B1B68DF
:1002FC00354A136000F090FF314B05221A6001F073
:10030C00B5F80120FFF71CFF0346002B52D02C4BF5
:10031C000B221A604EF6602000F006FF00F020FF62
:10032C0000F06AFF284B63221A6001F09FF844E04A
:10033C000020FFF705FF0220FFF702FF0320FFF765
:10034C00FFFE224B1B68012B19D11F4B1B68013B75
:10035C001D4A13604FF47A7000F0E6FE1A4B1B68CE
:10036C00002B0AD1174B1B68174A136000F0F8FEDC
:10037C0000F042FF124B02221A6001F077F80120C4
:10038C00FFF7DEFE0346012B16D10D4B0B221A6034
:10039C004EF6602000F0C8FE00F0E2FE00F02CFFEC
:1003AC00094B63221A6001F061F806E000BF04E01B
:1003BC0000BF02E000BF00E000BF00BF80BD00BF77
:1003CC00B400002000000020B8000020CC00002069
:1003DC0014000020040000200800002080B500AFAD
:1003EC00994B1B680B3B032B00F2228101A252F8A4
:1003FC0023F000BF110400089B0400082905000825
:10040C00B50500080020FFF79BFE0320FFF798FEC0
:10041C008E4B1B68002B10D08B4B03221A604FF4B1
:10042C007A7000F081FE8A4B1B688A4A136001F0D7
:10043C001DF800F095FE00F003FF0120FFF780FE91
:10044C000346002B14D00220FFF77AFE7E4B1522B8
:10045C001A604FF47A7000F067FE7F4B1B687D4A80
:10046C00136001F003F800F0B3FE00F0F9FEE8E0D1
:10047C000220FFF765FE0346002B00F0DB80724B79
:10048C000C221A604EF6602000F04EFED2E00020E6
:10049C00FFF756FE0320FFF753FE6C4B1B68002B37
:1004AC0010D0694B04221A604FF47A7000F03CFEB5
:1004BC006A4B1B68674A136000F0D8FF00F074FEAB
:1004CC0000F062FE0120FFF73BFE0346002B16D026
:1004DC000220FFF735FE5C4B15221A604FF47A7040
:1004EC0000F022FE5C4B1B685A4A136000F0BEFF02
:1004FC0000F06EFE00F0B4FE0220FFF721FE022099
:10050C00FFF71EFE0346002B00F096804E4B0D228B
:10051C001A604EF6602000F007FE8DE00020FFF719
:10052C000FFE0320FFF70CFE484B1B68002B10D06E
:10053C00454B05221A604FF47A7000F0F5FD484BDC
:10054C001B68444A136000F091FF00F065FE00F058
:10055C001BFE0120FFF7F4FD0346002B16D00220F2
:10056C00FFF7EEFD384B15221A604FF47A7000F04D
:10057C00DBFD394B1B68374A136000F077FF00F046
:10058C0027FE00F06DFE0220FFF7DAFD0220FFF7D8
:10059C00D7FD0346002B51D02B4B0E221A604EF682
:1005AC00602000F0C1FD49E00020FFF7C9FD0320E9
:1005BC00FFF7C6FD254B1B68002B10D0224B0222E7
:1005CC001A604FF47A7000F0AFFD234B1B68214A80
:1005DC00136000F04BFF00F0C3FD00F00DFE012096
:1005EC00FFF7AEFD0346002B14D00220FFF7A8FD49
:1005FC00154B15221A604FF47A7000F095FD164BCE
:10060C001B68144A136000F031FF00F0E1FD00F0AC
:10061C0027FE16E00220FFF793FD0346002B0FD0B8
:10062C00094B0B221A604EF6602000F07DFD07E0AE
:10063C0000BF06E000BF04E000BF02E000BF00E026
:10064C0000BF00BF80BD00BFB4000020CC00002064
:10065C0014000020B800002000000020040000203E
:10066C000800002080B400AF00BFBD4680BC7047BE
:10067C0080B500AFB84B1B68153B052B00F27B8295
:10068C0001A252F823F000BFAD0600087507000860
:10069C003D08000809090008F3090008BB0A000816
:1006AC00AE4B1B68002B08D0AC4B00221A604FF4E9
:1006BC007A7000F039FD00F0E3FD0120FFF740FDFA
:1006CC000346002B19D00220FFF73AFD0320FFF759
:1006DC0037FDA14B02221A6000F01CFE4FF47A7019
:1006EC0000F022FD9E4B1B689E4A136000F0BEFE7C
:1006FC0000F036FD00F080FD4AE20020FFF720FDFF
:10070C000220FFF71DFD0346002B16D00320FFF738
:10071C0017FD914B16221A604FF47A7000F004FD0D
:10072C0000F0F8FD904B1B688E4A136000F09EFEA3
:10073C0000F04EFD00F094FD2AE20320FFF700FDCF
:10074C000346002B00F01982864B1B680133854A47
:10075C00136000F08BFE834B1B68632B40F30D8200
:10076C00804B02221A6008E27C4B1B68002B08D0DD
:10077C007A4B00221A604FF47A7000F0D5FC00F02E
:10078C008BFD0120FFF7DCFC0346002B19D0022067
:10079C00FFF7D6FC0320FFF7D3FC00F0DDFD6E4B1A
:1007AC0002221A604FF47A7000F0BEFC6C4B1B688E
:1007BC006C4A136000F05AFE00F0D2FC00F01CFDF5
:1007CC00E6E10020FFF7BCFC0220FFF7B9FC034672
:1007DC00002B16D00320FFF7B3FC5F4B17221A60D7
:1007EC004FF47A7000F0A0FC00F0B6FD5F4B1B6874
:1007FC005C4A136000F03AFE00F0EAFC00F030FDB9
:10080C00C6E10320FFF79CFC0346002B00F0B781E8
:10081C00544B1B680133534A136000F027FE514BB5
:10082C001B68632B40F3AB814E4B02221A60A6E18E
:10083C004A4B1B68002B08D0484B00221A604FF41F
:10084C007A7000F071FC00F031FD0120FFF778FCAC
:10085C000346002B19D00220FFF772FC0320FFF790
:10086C006FFC00F09BFD3C4B02221A604FF47A7037
:10087C0000F05AFC3A4B1B683A4A136000F0F6FD44
:10088C0000F06EFC00F0B8FC82E10020FFF758FC91
:10089C000220FFF755FC0346002B16D00320FFF770
:1008AC004FFC2D4B18221A604FF47A7000F03CFC70
:1008BC0000F074FD2E4B1B682A4A136000F0D6FD25
:1008CC0000F086FC00F0CCFC62E10320FFF738FC62
:1008DC000346002B00F05581224B1B680133214A43
:1008EC00136000F0C3FD204B1A681E4B1B689A4224
:1008FC0000F347811B4B01221A6042E1174B1B6826
:10090C00002B08D0154B00221A604FF47A7000F0BF
:10091C000BFC00F0D5FC0120FFF712FC0346002B6A
:10092C0028D00220FFF70CFC0320FFF709FC0A4B30
:10093C0002221A6000F04CFD4FF47A7000F0F4FBC8
:10094C00074B1B68074A136000F090FD00F008FC91
:10095C0000F052FC1CE100BFB4000020CC000020D1
:10096C0000000020B80000200C0000200400002033
:10097C00100000200020FFF7E3FB0220FFF7E0FB54
:10098C000346002B16D00320FFF7DAFB814B19220C
:10099C001A604FF47A7000F0C7FB00F019FD7E4B23
:1009AC001B687E4A136000F061FD00F011FC00F042
:1009BC0057FCEDE00320FFF7C3FB0346002B00F0D0
:1009CC00E280764B1B680133744A136000F04EFDD5
:1009DC00734B1A68714B1B689A4200F3D4806F4BAF
:1009EC0001221A60CFE06F4B1B68002B08D06D4BB7
:1009FC0000221A604FF47A7000F096FB00F06AFC4B
:100A0C000120FFF79DFB0346002B19D00220FFF7B6
:100A1C0097FB0320FFF794FB5E4B02221A6000F059
:100A2C00F1FC4FF47A7000F07FFB5D4B1B685B4A66
:100A3C00136000F01BFD00F093FB00F0DDFBA7E062
:100A4C000020FFF77DFB0220FFF77AFB0346002B0B
:100A5C0016D00320FFF774FB4E4B1A221A604FF48A
:100A6C007A7000F061FB00F0CDFC4F4B1B684B4AD9
:100A7C00136000F0FBFC00F0ABFB00F0F1FB87E037
:100A8C000320FFF75DFB0346002B7ED0434B1B6816
:100A9C000133424A136000F0E9FC444B1A683F4BA7
:100AAC001B689A4271DC3D4B01221A606DE03D4B94
:100ABC001B68002B08D03B4B00221A604FF47A7055
:100ACC0000F032FB00F018FC0120FFF739FB034665
:100ADC00002B19D00220FFF733FB0320FFF730FB6C
:100AEC002C4B02221A6000F0A7FC4FF47A7000F035
:100AFC001BFB2B4B1B68294A136000F0B7FC00F062
:100B0C002FFB00F079FB43E00020FFF719FB0220DC
:100B1C00FFF716FB0346002B16D00320FFF710FB44
:100B2C001C4B15221A604FF47A7000F0FDFA00F09D
:100B3C0083FC1B4B1B68194A136000F097FC00F0F8
:100B4C0047FB00F08DFB23E00320FFF7F9FA034687
:100B5C00002B1CD0114B1B680133104A136000F0A2
:100B6C0085FC0F4B1A680D4B1B689A420FDC0B4B24
:100B7C0001221A600BE000BF0AE000BF08E000BFD2
:100B8C0006E000BF04E000BF02E000BF00E000BFD1
:100B9C0000BF80BDB400002008000020B800002079
:100BAC0000000020CC000020140000200C000020CD
:100BBC0080B500AF00F0AEFC00F01CF800F0D2F8ED
:100BCC0000F05AF800F0A4F800F04BF9074801F0D7
:100BDC00E1FC074B01221A60FFF7CCFAFFF7FEFB92
:100BEC00FFF746FDFFF73EFDF6E700BF20010020B2
:100BFC00B400002080B590B000AF07F11803282294
:100C0C000021184602F09CFB3B1D00221A605A6022
:100C1C009A60DA601A610223BB610123BB62102364
:100C2C00FB6202237B630023BB634FF46013FB6303
:100C3C0007F11803184601F043F80346002B01D0C6
:100C4C0000F00AF90F237B600223BB600023FB60DA
:100C5C004FF480633B6100237B613B1D02211846EE
:100C6C0001F0AEFA0346002B01D000F0F5F800BFFE
:100C7C004037BD4680BD000080B586B000AF07F19F
:100C8C00080300221A605A609A60DA603B46002220
:100C9C001A605A601D4B4FF080421A601B4B0A229F
:100CAC005A601A4B00229A60184B4FF6FF72DA60AA
:100CBC00164B00221A61154B00229A61134801F061
:100CCC0019FC0346002B01D000F0C6F84FF48053FA
:100CDC00BB6007F1080319460C4801F0ADFC034654
:100CEC00002B01D000F0B8F800233B6000237B60A0
:100CFC003B461946054801F05BFE0346002B01D02C
:100D0C0000F0AAF800BF1837BD4680BD20010020B6
:100D1C0080B500AF114B124A1A60104B4FF4E13200
:100D2C005A600E4B00229A600C4B0022DA600B4B7F
:100D3C0000221A61094B0C225A61084B00229A615D
:100D4C00064B0022DA61054801F090FE0346002BA9
:100D5C0001D000F081F800BF80BD00BFDC00002096
:100D6C000044004080B586B000AF07F108030022B4
:100D7C001A605A609A60DA60344B9B69334A43F0CC
:100D8C0004039361314B9B6903F004037B607B6824
:100D9C002E4B9B692D4A43F0080393612B4B9B69A7
:100DAC0003F008033B603B6800224FF4876128483E
:100DBC0000F054FF00224FF4A061264800F04EFFD3
:100DCC001323BB600023FB6000233B6107F1080386
:100DDC001946204800F0BEFD4023BB600223FB6097
:100DEC0002237B6107F1080319461A4800F0B2FD93
:100DFC000123BB600023FB6000233B6107F1080368
:100E0C001946134800F0A6FD4FF48763BB6001231D
:100E1C00FB6000233B6102237B6107F10803194649
:100E2C000B4800F097FD4FF4A063BB600123FB60FF
:100E3C0000233B6102237B6107F108031946054837
:100E4C0000F088FD00BF1837BD4680BD0010024081
:100E5C00000C01400008014080B400AF72B600BF26
:100E6C00FEE780B582B000AF0023FB7106E0FB7992
:100E7C00184600F00BF8FB790133FB71FB79272B3B
:100E8C00F5D900BF00BF0837BD4680BD80B483B024
:100E9C0000AF78601C497A6813469B0013449B0092
:100EAC000B441B68002B01D1002327E016497A68FC
:100EBC0013469B0013449B000B4400221A601249FA
:100ECC007A6813469B0013449B000B4404330022A6
:100EDC001A600D497A6813469B0013449B000B441F
:100EEC00083300221A6008497A6813469B001344A1
:100EFC009B000B440C3300221A70012318460C374C
:100F0C00BD4680BC704700BF6801002080B485B02E
:100F1C0000AF154B9B69144A43F001039361124BCC
:100F2C009B6903F00103BB60BB680F4BDB690E4A86
:100F3C0043F08053D3610C4BDB6903F080537B602F
:100F4C007B680A4B5B68FB60FB6823F0E063FB602B
:100F5C00FB6843F00073FB60044AFB68536000BFFE
:100F6C001437BD4680BC70470010024000000140A1
:100F7C0080B485B000AF78607B681B68B3F1804F9C
:100F8C000BD1084BDB69074A43F00103D361054BD6
:100F9C00DB6903F00103FB60FB6800BF1437BD463F
:100FAC0080BC70470010024080B588B000AF7860FC
:100FBC0007F1100300221A605A609A60DA607B68AD
:100FCC001B681F4A934237D11E4BDB691D4A43F401
:100FDC000033D3611B4BDB6903F40033FB60FB680C
:100FEC00184B9B69174A43F004039361154B9B699B
:100FFC0003F00403BB60BB6804233B6102237B61E9
:10100C000323FB6107F1100319460F4800F0A2FC03
:10101C0008233B6100237B610023BB6107F11003B4
:10102C001946094800F096FC00220021262000F009
:10103C00AAFB262000F0C3FB00BF2037BD4680BDB5
:10104C0000440040001002400008014080B400AF92
:10105C00FEE780B400AFFEE780B400AFFEE780B4DB
:10106C0000AFFEE780B400AFFEE780B400AF00BF76
:10107C00BD4680BC704780B400AF00BFBD4680BC8D
:10108C00704780B400AF00BFBD4680BC704780B5D0
:10109C0000AF00F085FA00BF80BD000080B500AF46
:1010AC00024801F075FD00BF80BD00BFDC000020D0
:1010BC0080B586B000AF7860144A154BD31A7B61AB
:1010CC007B693B61134B1B68002B02D1114B124AFD
:1010DC001A60104B1A687B6813443A699A4207D21B
:1010EC0002F004F903460C221A604FF0FF3309E0BA
:1010FC00084B1B68FB60074B1A687B681344054A56
:10110C001360FB6818461837BD4680BD00500020A0
:10111C0000040000C8000020A004002080B400AF30
:10112C0000BFBD4680BC704780B483B000AF786010
:10113C007B68084A82FB03129210DB17D31A064A0B
:10114C001360064B00221A6000BF0C37BD4680BCF2
:10115C00704700BF67666666D0000020CC00002098
:10116C0080B500AF01224FF48061054800F076FD98
:10117C0000220821034800F071FD00BF80BD00BFB4
:10118C0000080140000C014080B500AF0122202175
:10119C00044800F063FD00221021024800F05EFDBF
:1011AC0000BF80BD000C014080B500AF00224FF4A1
:1011BC008061054800F052FD01220821034800F02F
:1011CC004DFD00BF80BD00BF00080140000C014078
:1011DC0080B500AF00224FF48061054800F03EFD61
:1011EC0000220821034800F039FD00BF80BD00BF7C
:1011FC0000080140000C014080B500AF0022202106
:10120C00044800F02BFD01221021024800F026FDBD
:10121C0000BF80BD000C014080B500AF01224FF42F
:10122C008061054800F01AFD01220821034800F0F6
:10123C0015FD00BF80BD00BF00080140000C01403F
:10124C0080B500AF01222021044800F007FD0122E7
:10125C001021024800F002FD00BF80BD000C0140CF
:10126C0080B500AF00222021044800F0F7FC0022DA
:10127C001021024800F0F2FC00BF80BD000C0140C0
:10128C0080B500AF4FF48061024800F0FFFC00BF56
:10129C0080BD00BF0008014080B500AF202102488E
:1012AC0000F0F4FC00BF80BD000C014080B500AF25
:1012BC000821024800F0EAFC00BF80BD000C014090
:1012CC0080B500AF1021024800F0E0FC00BF80BDEB
:1012DC00000C014080B500AF4FF48061044800F071
:1012EC00D5FC0821034800F0D1FC00BF80BD00BF35
:1012FC0000080140000C014080B500AF20210448DB
:10130C0000F0C4FC1021024800F0C0FC00BF80BDFE
:10131C00000C014080B400AF0B4B1B680B4A1360F0
:10132C000A4B1A680A4B1B689A4202DC084B0122D2
:10133C001A60064B1A68064B1B68D31A054A1360D1
:10134C0000BFBD4680BC7047B800002000000020E4
:10135C00140000201000002080B400AF0B4B1B6861
:10136C000B4A13600A4B1A680A4B1B689A4202DC40
:10137C00084B01221A60064B1A68064B1B68D31ADD
:10138C00054A136000BFBD4680BC7047B800002002
:10139C000C000020080000200400002080B400AFE6
:1013AC00074B1B68074A1360074B1A68054B1B68F1
:1013BC00D31A064A136000BFBD4680BC704700BFFD
:1013CC00B8000020040000200C00002008000020C1
:1013DC0080B400AF074B1B68074A1360074B1A68B1
:1013EC00054B1B68D31A064A136000BFBD4680BC70
:1013FC00704700BFB8000020100000200000002043
:10140C001400002080B400AF074B1B68074A136020
:10141C00074B1A68054B1B68D31A064A136000BFAA
:10142C00BD4680BC704700BFB800002008000020FB
:10143C000C0000200400002080B400AF074B1B6898
:10144C00074A1360074B1A68054B1B68D31A064AE8
:10145C00136000BFBD4680BC704700BFB8000020C1
:10146C0014000020000000201000002080B500AF08
:10147C00104B1B68104A82FB03129210DB17D01A18
:10148C000C4B1A680C4B83FB02139910D317C91A17
:10149C000B469B000B445B00D11A0B4602460749D6
:1014AC00074801F055FF09220549064801F02BFBBE
:1014BC0000BF80BDB800002067666666E83B000888
:1014CC00BC000020DC0000200C480D490D4A002314
:1014DC0002E0D458C4500433C4188C42F9D30A4ADD
:1014EC000A4C002301E013600432A242FBD3FFF745
:1014FC0015FE01F001FFFFF75BFB704700000020B9
:10150C0088000020583C0008880000209C04002023
:10151C00FEE7000080B500AF084B1B68074A43F09C
:10152C0010031360032000F023F90F2000F008F8DB
:10153C00FFF7ECFC0023184680BD00BF00200240E2
:10154C0080B582B000AF7860124B1A68124B1B78D2
:10155C0019464FF47A73B3FBF1F3B2FBF3F318466D
:10156C0000F03BF90346002B01D001230EE07B6811
:10157C000F2B0AD8002279684FF0FF3000F003F9E6
:10158C00064A7B681360002300E0012318460837E5
:10159C00BD4680BD18000020200000201C0000204B
:1015AC0080B400AF054B1B781A46054B1B681344DF
:1015BC00034A136000BFBD4680BC7047200000206A
:1015CC008804002080B400AF024B1B681846BD464F
:1015DC0080BC70478804002080B485B000AF786070
:1015EC007B6803F00703FB600C4BDB68BB60BA68DD
:1015FC004FF6FF031340BB60FB681A02BB68134332
:10160C0043F0BF6343F40033BB60044ABB68D36050
:10161C0000BF1437BD4680BC704700BF00ED00E032
:10162C0080B400AF044BDB681B0A03F007031846B9
:10163C00BD4680BC704700BF00ED00E080B483B0B5
:10164C0000AF0346FB7197F90730002B0BDBFB79DE
:10165C0003F01F02064997F907305B09012000FAD5
:10166C0002F241F8232000BF0C37BD4680BC704706
:10167C0000E100E080B483B000AF03463960FB7139
:10168C0097F90730002B0ADB3B68DAB20C4997F963
:10169C0007301201D2B20B4483F800230AE03B68F6
:1016AC00DAB20849FB7903F00F03043B1201D2B202
:1016BC000B441A7600BF0C37BD4680BC704700BF88
:1016CC0000E100E000ED00E080B489B000AFF8600C
:1016DC00B9607A60FB6803F00703FB61FB69C3F137
:1016EC000703042B28BF0423BB61FB690433062BBF
:1016FC0002D9FB69033B00E000237B614FF0FF3212
:10170C00BB6902FA03F3DA43BB681A407B699A405F
:10171C004FF0FF317B6901FA03F3D9437B680B402F
:10172C00134318462437BD4680BC704780B582B041
:10173C0000AF78607B68013BB3F1807F01D301235C
:10174C000FE00A4A7B68013B53600F214FF0FF30DA
:10175C00FFF790FF054B00229A60044B07221A609A
:10176C00002318460837BD4680BD00BF10E000E0DE
:10177C0080B582B000AF78607868FFF72DFF00BFAE
:10178C000837BD4680BD80B586B000AF0346B96052
:10179C007A60FB7300237B61FFF742FF78617A6804
:1017AC00B9687869FFF790FF024697F90F30114638
:1017BC001846FFF75FFF00BF1837BD4680BD80B5E8
:1017CC0082B000AF0346FB7197F907301846FFF75C
:1017DC0035FF00BF0837BD4680BD80B582B000AF75
:1017EC0078607868FFF7A2FF034618460837BD46B5
:1017FC0080BD80B485B000AF78600023FB737B683C
:10180C0093F82130022B08D07B6804229A637B6802
:10181C00002283F82020012320E07B681B681A68D3
:10182C007B681B6822F00E021A607B681B681A68C2
:10183C007B681B6822F001021A607B681A6C7B685B
:10184C00DB6B012101FA02F25A607B68012283F8FA
:10185C0021207B68002283F82020FB7B184614375C
:10186C00BD4680BC7047000080B584B000AF786086
:10187C000023FB737B6893F82130022B05D07B6827
:10188C0004229A630123FB7351E07B681B681A687E
:10189C007B681B6822F00E021A607B681B681A6852
:1018AC007B681B6822F001021A607B681B68224A65
:1018BC00934229D07B681B68204A934222D07B68D4
:1018CC001B681F4A93421AD07B681B681D4A9342BF
:1018DC0012D07B681B681C4A93420AD07B681B6839
:1018EC001A4A934202D14FF480130EE04FF08073EA
:1018FC000BE04FF4803308E04FF4805305E04FF4D5
:10190C00807302E0102300E00123114A53607B68CE
:10191C00012283F821207B68002283F820207B6839
:10192C005B6B002B03D07B685B6B78689847FB7B09
:10193C0018461037BD4680BD080002401C0002400E
:10194C003000024044000240580002406C0002404B
:10195C000000024080B48BB000AF78603960002387
:10196C007B6200233B6269E101227B6A02FA03F38A
:10197C00FB613B681B68FA691340BB61BA69FB6980
:10198C009A4240F058813B685B689A4A93425ED019
:10199C00984A934275D8984A934258D0964A9342A3
:1019AC006FD8964A934252D0944A934269D8944A3B
:1019BC0093424CD0924A934263D8924A934246D077
:1019CC00904A93425DD8122B2AD8122B59D801A2D7
:1019DC0052F823F05B1A0008351A0008471A000861
:1019EC00891A00088F1A00088F1A00088F1A00082D
:1019FC008F1A00088F1A00088F1A00088F1A000817
:101A0C008F1A00088F1A00088F1A00088F1A000806
:101A1C008F1A00088F1A00083D1A0008511A000886
:101A2C00794A934213D02CE03B68DB683B6229E097
:101A3C003B68DB6804333B6224E03B68DB680833BB
:101A4C003B621FE03B68DB680C333B621AE03B688F
:101A5C009B68002B02D104233B6213E03B689B681C
:101A6C00012B05D108233B627B68FA691A6109E0F6
:101A7C0008233B627B68FA695A6103E000233B62EE
:101A8C0000E000BFBB69FF2B01D87B6801E07B68DD
:101A9C0004337B61BB69FF2B02D87B6A9B0002E09D
:101AAC007B6A083B9B003B617B691A680F213B6991
:101ABC0001FA03F3DB431A40396A3B6901FA03F379
:101ACC001A437B691A603B685B6803F08053002BF8
:101ADC0000F0B1804D4B9B694C4A43F0010393617C
:101AEC004A4B9B6903F00103BB60BB68484A7B6AA5
:101AFC009B08023352F82330FB607B6A03F003032C
:101B0C009B000F2202FA03F3DB43FA681340FB60DD
:101B1C007B68404A934213D07B683F4A93420DD076
:101B2C007B683E4A934207D07B683D4A934201D181
:101B3C00032306E0042304E0022302E0012300E077
:101B4C0000237A6A02F0030292009340FA6813436E
:101B5C00FB602F497B6A9B080233FA6841F823200B
:101B6C003B685B6803F48033002B06D02D4B1A685E
:101B7C002C49BB6913430B6006E02A4B1A68BB69FE
:101B8C00DB43284913400B603B685B6803F400336C
:101B9C00002B06D0234B5A682249BB6913434B6078
:101BAC0006E0204B5A68BB69DB431E4913404B606F
:101BBC003B685B6803F48013002B06D0194B9A68C2
:101BCC001849BB6913438B6006E0164B9A68BB69D6
:101BDC00DB43144913408B603B685B6803F40013D0
:101BEC00002B21D00F4BDA680E49BB691343CB6035
:101BFC0021E000BF00003210000031100000221064
:101C0C000000211000001210000011100010024002
:101C1C000000014000080140000C01400010014090
:101C2C0000140140000401400B4BDA68BB69DB4334
:101C3C0009491340CB607B6A01337B623B681A68AD
:101C4C007B6A22FA03F3002B7FF48EAE00BF00BF39
:101C5C002C37BD4680BC70470004014080B483B073
:101C6C0000AF78600B467B8013467B707B78002B33
:101C7C0003D07A887B681A6103E07B881A047B683E
:101C8C001A6100BF0C37BD4680BC704780B485B06C
:101C9C0000AF78600B467B807B68DB68FB607A88E2
:101CAC00FB6813401A04FB68D9437B880B401A432A
:101CBC007B681A6100BF1437BD4680BC70470000BA
:101CCC0080B586B000AF78607B68002B01D1012312
:101CDC006CE27B681B6803F00103002B00F087802B
:101CEC00924B5B6803F00C03042B0CD08F4B5B689E
:101CFC0003F00C03082B12D18C4B5B6803F480337C
:101D0C00B3F5803F0BD1894B1B6803F40033002BD8
:101D1C006CD07B685B68002B68D1012346E27B6842
:101D2C005B68B3F5803F06D1804B1B687F4A43F458
:101D3C00803313602EE07B685B68002B0CD17B4BEF
:101D4C001B687A4A23F480331360784B1B68774AFC
:101D5C0023F4802313601DE07B685B68B3F5A02F30
:101D6C000CD1724B1B68714A43F4802313606F4B88
:101D7C001B686E4A43F4803313600BE06B4B1B689B
:101D8C006A4A23F480331360684B1B68674A23F458
:101D9C00802313607B685B68002B13D0FFF712FC69
:101DAC00386108E0FFF70EFC02463B69D31A642B3E
:101DBC0001D90323FAE15D4B1B6803F40033002BBC
:101DCC00F0D014E0FFF7FEFB386108E0FFF7FAFBF8
:101DDC0002463B69D31A642B01D90323E6E1534B2A
:101DEC001B6803F40033002BF0D100E000BF7B68CC
:101DFC001B6803F00203002B63D04C4B5B6803F0B1
:101E0C000C03002B0BD0494B5B6803F00C03082B25
:101E1C001CD1464B5B6803F48033002B16D1434B2B
:101E2C001B6803F00203002B05D07B681B69012B98
:101E3C0001D00123BAE13D4B1B6823F0F8027B680B
:101E4C005B69DB00394913430B603AE07B681B6923
:101E5C00002B20D0364B01221A60FFF7B3FB386100
:101E6C0008E0FFF7AFFB02463B69D31A022B01D9FE
:101E7C0003239BE12D4B1B6803F00203002BF0D0D6
:101E8C002A4B1B6823F0F8027B685B69DB0027494F
:101E9C0013430B6015E0264B00221A60FFF792FBF0
:101EAC00386108E0FFF78EFB02463B69D31A022B20
:101EBC0001D903237AE11D4B1B6803F00203002BAD
:101ECC00F0D17B681B6803F00803002B3AD07B68C9
:101EDC009B69002B19D0174B01221A60FFF772FB7C
:101EEC00386108E0FFF76EFB02463B69D31A022B00
:101EFC0001D903235AE10D4B5B6A03F00203002B5B
:101F0C00F0D0012000F0D8FA1CE00A4B00221A6035
:101F1C00FFF758FB38610FE0FFF754FB02463B69B3
:101F2C00D31A022B08D9032340E100BF0010024052
:101F3C0000004242800442429E4B5B6A03F0020363
:101F4C00002BE9D17B681B6803F00403002B00F025
:101F5C00A6800023FB75974BDB6903F08053002BA5
:101F6C000DD1944BDB69934A43F08053D361914B71
:101F7C00DB6903F08053BB60BB680123FB758E4BA0
:101F8C001B6803F48073002B18D18B4B1B688A4A97
:101F9C0043F480731360FFF715FB386108E0FFF71B
:101FAC0011FB02463B69D31A642B01D90323FDE0D4
:101FBC00814B1B6803F48073002BF0D07B68DB68CB
:101FCC00012B06D17B4B1B6A7A4A43F00103136247
:101FDC002DE07B68DB68002B0CD1764B1B6A754AB5
:101FEC0023F001031362734B1B6A724A23F0040340
:101FFC0013621CE07B68DB68052B0CD16D4B1B6AF4
:10200C006C4A43F0040313626A4B1B6A694A43F03F
:10201C00010313620BE0674B1B6A664A23F0010352
:10202C001362644B1B6A634A23F0040313627B68DC
:10203C00DB68002B15D0FFF7C5FA38610AE0FFF713
:10204C00C1FA02463B69D31A41F28832934201D954
:10205C000323ABE0574B1B6A03F00203002BEED0BB
:10206C0014E0FFF7AFFA38610AE0FFF7ABFA02466B
:10207C003B69D31A41F28832934201D9032395E08C
:10208C004C4B1B6A03F00203002BEED1FB7D012BA2
:10209C0005D1484BDB69474A23F08053D3617B68F9
:1020AC00DB69002B00F08180424B5B6803F00C0372
:1020BC00082B61D07B68DB69022B46D13F4B002299
:1020CC001A60FFF77FFA386108E0FFF77BFA0246E7
:1020DC003B69D31A022B01D9032367E0354B1B68EC
:1020EC0003F00073002BF0D17B681B6AB3F5803FC3
:1020FC0008D1304B5B6823F400327B689B682D4918
:10210C0013434B602B4B5B6823F474127B68196A86
:10211C007B685B6A0B43274913434B60274B0122B7
:10212C001A60FFF74FFA386108E0FFF74BFA0246E6
:10213C003B69D31A022B01D9032337E01D4B1B68D3
:10214C0003F00073002BF0D02FE01C4B00221A6020
:10215C00FFF738FA386108E0FFF734FA02463B69BA
:10216C00D31A022B01D9032320E0124B1B6803F076
:10217C000073002BF0D118E07B68DB69012B01D1D7
:10218C00012313E00B4B5B68FB60FB6803F48032AC
:10219C007B681B6A9A4206D1FB6803F470127B6859
:1021AC005B6A9A4201D0012300E0002318461837DD
:1021BC00BD4680BD001002400070004060004242ED
:1021CC0080B584B000AF786039607B68002B01D19A
:1021DC000123D0E06A4B1B6803F007033A689A426C
:1021EC0010D9674B1B6823F0070265493B68134302
:1021FC000B60634B1B6803F007033A689A4201D0EB
:10220C000123B8E07B681B6803F00203002B20D08D
:10221C007B681B6803F00403002B05D0594B5B68EB
:10222C00584A43F4E06353607B681B6803F008036F
:10223C00002B05D0534B5B68524A43F460535360F8
:10224C00504B5B6823F0F0027B689B684D4913434D
:10225C004B607B681B6803F00103002B40D07B684C
:10226C005B68012B07D1474B1B6803F40033002B31
:10227C0015D101237FE07B685B68022B07D1414BB2
:10228C001B6803F00073002B09D1012373E03D4B55
:10229C001B6803F00203002B01D101236BE0394BC7
:1022AC005B6823F003027B685B68364913434B6021
:1022BC00FFF788F9F8600AE0FFF784F90246FB683B
:1022CC00D31A41F28832934201D9032353E02D4BA8
:1022DC005B6803F00C027B685B689B009A42EBD155
:1022EC00274B1B6803F007033A689A4210D2244B21
:1022FC001B6823F0070222493B6813430B60204BF9
:10230C001B6803F007033A689A4201D0012332E0BC
:10231C007B681B6803F00403002B08D0194B5B6827
:10232C0023F4E0627B68DB68164913434B607B68DF
:10233C001B6803F00803002B09D0124B5B6823F4D5
:10234C0060527B681B69DB000E4913434B6000F045
:10235C0021F802460B4B5B681B0903F00F030A497B
:10236C00CB5C22FA03F3094A1360094B1B6818462D
:10237C00FFF7E6F8002318461037BD4680BD00BFB6
:10238C000020024000100240043C0008180000200D
:10239C001C00002090B48AB000AF2A4B3C1D0FCB20
:1023AC0084E80F0040F201233B800023FB610023F3
:1023BC00BB6100237B6200237B6100233B62224BC9
:1023CC005B68FB61FB6903F00C03042B02D0082B48
:1023DC0003D02DE01D4B3B622DE0FB699B0C03F001
:1023EC000F0307F12802134413F8243C7B61FB69AB
:1023FC0003F48033002B13D0134B5B685B0C03F09E
:10240C00010307F12802134413F8283CBB617B69D4
:10241C000E4A02FB03F2BB69B2FBF3F37B6204E0EE
:10242C007B690B4A02FB03F37B627B6A3B6202E033
:10243C00064B3B6200BF3B6A18462837BD4690BC32
:10244C00704700BFF43B00080010024000127A00F5
:10245C0000093D0080B400AF024B1B681846BD4616
:10246C0080BC70471800002080B500AFFFF7F2FF6A
:10247C000246054B5B681B0A03F007030349CB5C60
:10248C0022FA03F3184680BD00100240143C0008E9
:10249C0080B500AFFFF7DEFF0246054B5B68DB0A39
:1024AC0003F007030349CB5C22FA03F3184680BD03
:1024BC0000100240143C000880B485B000AF786076
:1024CC000A4B1B680A4AA2FB03235B0A7A6802FBCD
:1024DC0003F3FB6000BFFB685A1EFA60002BF9D1B6
:1024EC0000BF00BF1437BD4680BC704718000020E9
:1024FC00D34D621080B582B000AF78607B68002B42
:10250C0001D1012341E07B6893F83D30DBB2002B15
:10251C0006D17B68002283F83C207868FEF728FD02
:10252C007B68022283F83D207B681A687B68043341
:10253C001946104600F044F97B68012283F84620C6
:10254C007B68012283F83E207B68012283F83F20C0
:10255C007B68012283F840207B68012283F84120AC
:10256C007B68012283F842207B68012283F8432098
:10257C007B68012283F844207B68012283F8452084
:10258C007B68012283F83D20002318460837BD469E
:10259C0080BD000080B485B000AF78607B6893F894
:1025AC003D30DBB2012B01D001233AE07B680222E3
:1025BC0083F83D207B681B68DA687B681B6842F0F7
:1025CC000102DA607B681B68184A93420ED07B6864
:1025DC001B68B3F1804F09D07B681B68144A934287
:1025EC0004D07B681B68134A934211D17B681B682B
:1025FC009B6803F00703FB60FB68062B10D07B681D
:10260C001B681A687B681B6842F001021A6007E0BD
:10261C007B681B681A687B681B6842F001021A60B1
:10262C00002318461437BD4680BC7047002C01406F
:10263C00000400400008004080B584B000AF786012
:10264C0039607B6893F83C30012B01D10223B3E055
:10265C007B68012283F83C207B68022283F83D20B2
:10266C007B681B689B68FB60FB6823F07703FB604F
:10267C00FB6823F47F43FB607B681B68FA689A60F5
:10268C003B681B68B3F5005F3ED0B3F5005F00F20A
:10269C008780B3F5805F00F08580B3F5805F7FD8CD
:1026AC00702B1AD0702B7BD8602B50D0602B77D826
:1026BC00502B3CD0502B73D8402B58D0402B6FD87C
:1026CC00302B64D0302B6BD8202B60D0202B67D8CC
:1026DC00002B5CD0102B5AD062E07B6818683B68EA
:1026EC0099683B685A683B68DB6800F042F97B6884
:1026FC001B689B68FB60FB6843F07703FB607B689F
:10270C001B68FA689A604EE07B6818683B689968A9
:10271C003B685A683B68DB6800F02BF97B681B68E8
:10272C009A687B681B6842F480429A603BE07B6845
:10273C0018683B6859683B68DB681A4600F0A2F8D9
:10274C007B681B685021184600F0F9F82BE07B6879
:10275C0018683B6859683B68DB681A4600F0C0F89B
:10276C007B681B686021184600F0E9F81BE07B6869
:10277C0018683B6859683B68DB681A4600F082F8B9
:10278C007B681B684021184600F0D9F80BE07B6889
:10279C001A683B681B681946104600F0D0F802E036
:1027AC0000BF00E000BF7B68012283F83D207B68FE
:1027BC00002283F83C20002318461037BD4680BD0C
:1027CC0080B485B000AF786039607B681B68FB60B3
:1027DC007B68294A93420BD07B68B3F1804F07D0BA
:1027EC007B68264A934203D07B68254A934208D1E2
:1027FC00FB6823F07003FB603B685B68FA6813436B
:10280C00FB607B681C4A93420BD07B68B3F1804F12
:10281C0007D07B68194A934203D07B68184A9342CD
:10282C0008D1FB6823F44073FB603B68DB68FA68F3
:10283C001343FB60FB6823F080023B685B69134326
:10284C00FB607B68FA681A603B689A687B68DA629E
:10285C003B681A687B689A627B68074A934203D18B
:10286C003B681A697B681A637B6801225A6100BF56
:10287C001437BD4680BC7047002C0140000400405A
:10288C000008004080B487B000AFF860B9607A608F
:10289C00FB681B6A7B61FB681B6A23F00102FB6807
:1028AC001A62FB689B693B613B6923F0F0033B6157
:1028BC007B681B013A6913433B617B6923F00A0374
:1028CC007B617A69BB6813437B61FB683A699A61E7
:1028DC00FB687A691A6200BF1C37BD4680BC704722
:1028EC0080B487B000AFF860B9607A60FB681B6A8F
:1028FC0023F01002FB681A62FB689B697B61FB6822
:10290C001B6A3B617B6923F470437B617B681B030F
:10291C007A6913437B613B6923F0A0033B61BB687D
:10292C001B013A6913433B61FB687A699A61FB6846
:10293C003A691A6200BF1C37BD4680BC704780B430
:10294C0085B000AF786039607B689B68FB60FB6882
:10295C0023F07003FB603A68FB68134343F00703F2
:10296C00FB607B68FA689A6000BF1437BD4680BC78
:10297C00704780B487B000AFF860B9607A603B6094
:10298C00FB689B687B617B6923F47F437B613B68BD
:10299C001A027B681A43BB6813437A6913437B6141
:1029AC00FB687A699A6000BF1C37BD4680BC7047D3
:1029BC0080B485B000AF786039607B6893F83C30A8
:1029CC00012B01D1022346E07B68012283F83C20D5
:1029DC007B68022283F83D207B681B685B68FB6088
:1029EC007B681B689B68BB60FB6823F07003FB6013
:1029FC003B681B68FA681343FB607B681B68FA68CA
:102A0C005A607B681B68164A93420ED07B681B6821
:102A1C00B3F1804F09D07B681B68124A934204D0F3
:102A2C007B681B68104A93420CD1BB6823F080036F
:102A3C00BB603B685B68BA681343BB607B681B6810
:102A4C00BA689A607B68012283F83D207B6800227B
:102A5C0083F83C20002318461437BD4680BC7047D1
:102A6C00002C0140000400400008004080B582B0FA
:102A7C0000AF78607B68002B01D101233FE07B68BD
:102A8C0093F83D30DBB2002B06D17B68002283F833
:102A9C003C207868FEF788FA7B68242283F83D2076
:102AAC007B681B68DA687B681B6822F40052DA606A
:102ABC00786800F08DFB7B681B681A697B681B6863
:102ACC0022F490421A617B681B685A697B681B6808
:102ADC0022F02A025A617B681B68DA687B681B68E3
:102AEC0042F40052DA607B6800221A647B68202270
:102AFC0083F83D207B68202283F83E200023184673
:102B0C000837BD4680BD80B485B000AFF860B960B1
:102B1C001346FB80FB6893F83D30DBB2202B30D1A1
:102B2C00BB68002B02D0FB88002B01D1012329E0CC
:102B3C00FB6893F83C30012B01D1022322E0FB68A7
:102B4C00012283F83C20FB68BA681A62FB68FA8899
:102B5C009A84FB68FA88DA84FB6800221A64FB68A2
:102B6C00212283F83D20FB68002283F83C20FB687F
:102B7C001B68DA68FB681B6842F08002DA6000238D
:102B8C0000E0022318461437BD4680BC7047000095
:102B9C0080B58AB000AF78607B681B681B687B626D
:102BAC007B681B68DB683B627B681B685B69FB614D
:102BBC000023BB6100237B617B6A03F00F03BB61C5
:102BCC00BB69002B0DD17B6A03F02003002B08D0CE
:102BDC003B6A03F02003002B03D0786800F04FFA17
:102BEC007BE1BB69002B00F0B180FB6903F00103B2
:102BFC00002B05D13B6A03F49073002B00F0A680E8
:102C0C007B6A03F00103002B0AD03B6A03F4807348
:102C1C00002B05D07B681B6C43F001027B681A64A7
:102C2C007B6A03F00403002B0AD0FB6903F0010359
:102C3C00002B05D07B681B6C43F002027B681A6486
:102C4C007B6A03F00203002B0AD0FB6903F001033B
:102C5C00002B05D07B681B6C43F004027B681A6464
:102C6C007B6A03F00803002B0FD03B6A03F02003B0
:102C7C00002B04D1FB6903F00103002B05D07B680A
:102C8C001B6C43F008027B681A647B681B6C002B7E
:102C9C0000F01E817B6A03F02003002B07D03B6AF7
:102CAC0003F02003002B02D0786800F0E8F97B6871
:102CBC001B685B6903F04003002B14BF0123002346
:102CCC00DBB27B617B681B6C03F00803002B02D129
:102CDC007B69002B31D0786800F02AF97B681B687F
:102CEC005B6903F04003002B23D07B681B685A6997
:102CFC007B681B6822F040025A617B689B6B002B3F
:102D0C0013D07B689B6B764A5A637B689B6B184627
:102D1C00FEF7AAFD0346002B16D07B689B6B5B6B02
:102D2C007A68926B104698470EE0786800F0ECF8E1
:102D3C000AE0786800F0E8F806E0786800F0E4F85B
:102D4C007B6800221A64C3E000BFC1E07B681B6B88
:102D5C00012B40F0A1807B6A03F01003002B00F0E4
:102D6C009B803B6A03F01003002B00F0958000233E
:102D7C00FB607B681B681B68FB607B681B685B687F
:102D8C00FB60FB687B681B685B6903F04003002BEE
:102D9C004ED07B689B6B1B685B683B823B8A002B2D
:102DAC0000F098807B689B8D3A8A9A4280F09280E2
:102DBC007B683A8ADA857B689B6B9B69202B2BD0CE
:102DCC007B681B68DA687B681B6822F48072DA60A7
:102DDC007B681B685A697B681B6822F001025A6188
:102DEC007B681B685A697B681B6822F040025A6139
:102DFC007B68202283F83E207B6800221A637B6864
:102E0C001B68DA687B681B6822F01002DA607B684A
:102E1C009B6B1846FEF7EDFC7B689A8D7B68DB8D0F
:102E2C009BB2D31A9BB21946786800F076F851E041
:102E3C007B689A8D7B68DB8D9BB2D31A7B827B6817
:102E4C00DB8D9BB2002B47D07B8A002B44D07B6858
:102E5C001B68DA687B681B6822F49072DA607B6806
:102E6C001B685A697B681B6822F001025A617B68F7
:102E7C00202283F83E207B6800221A637B681B6843
:102E8C00DA687B681B6822F01002DA607B8A1946CC
:102E9C00786800F042F81FE07B6A03F08003002B97
:102EAC0008D03B6A03F08003002B03D0786800F055
:102EBC007FF812E07B6A03F04003002B0DD03B6AD5
:102ECC0003F04003002B08D0786800F0C0F804E051
:102EDC0000BF02E000BF00E000BF2837BD4680BD48
:102EEC00952F000880B483B000AF786000BF0C371A
:102EFC00BD4680BC704780B483B000AF786000BF23
:102F0C000C37BD4680BC704780B483B000AF78608E
:102F1C0000BF0C37BD4680BC704780B483B000AF97
:102F2C0078600B467B8000BF0C37BD4680BC704779
:102F3C0080B483B000AF78607B681B68DA687B680C
:102F4C001B6822F49072DA607B681B685A697B6894
:102F5C001B6822F001025A617B681B6B012B07D1A5
:102F6C007B681B68DA687B681B6822F01002DA60E9
:102F7C007B68202283F83E207B6800221A6300BF06
:102F8C000C37BD4680BC704780B584B000AF78600C
:102F9C007B685B6AFB60FB680022DA85FB680022B9
:102FAC00DA84F868FFF7B0FF00BF1037BD4680BD6C
:102FBC0080B485B000AF78607B6893F83D30DBB2AD
:102FCC00212B3ED17B689B68B3F5805F14D17B6865
:102FDC001B69002B10D17B681B6AFB60FB681B888C
:102FEC001A467B681B68C2F308025A607B681B6A2E
:102FFC009A1C7B681A6208E07B681B6A591C7A6809
:10300C0011621A787B681B685A607B68DB8C9BB2F8
:10301C00013B9BB27A681946D184002B0FD17B6897
:10302C001B68DA687B681B6822F08002DA607B68B8
:10303C001B68DA687B681B6842F04002DA60002388
:10304C0000E0022318461437BD4680BC704780B59B
:10305C0082B000AF78607B681B68DA687B681B689D
:10306C0022F04002DA607B68202283F83D207868E9
:10307C00FFF738FF002318460837BD4680BD80B5E2
:10308C0086B000AF78607B6893F83E30DBB2222BC1
:10309C0040F099807B689B68B3F5805F17D17B68A3
:1030AC001B69002B13D100237B617B689B6A3B61FE
:1030BC007B681B685B689BB2C3F308039AB23B69DD
:1030CC001A807B689B6A9A1C7B689A6226E07B68F4
:1030DC009B6A7B6100233B617B689B68B3F5805FD7
:1030EC0007D07B689B68002B0AD17B681B69002B7F
:1030FC0006D17B681B685B68DAB27B691A7008E0E2
:10310C007B681B685B68DBB203F07F03DAB27B6918
:10311C001A707B689B6A5A1C7B689A627B68DB8D91
:10312C009BB2013B9BB27A681946D185002B48D1E2
:10313C007B681B68DA687B681B6822F02002DA6007
:10314C007B681B68DA687B681B6822F48072DA6023
:10315C007B681B685A697B681B6822F001025A6104
:10316C007B68202283F83E207B681B6B012B23D1CC
:10317C007B6800221A637B681B68DA687B681B68B3
:10318C0022F01002DA607B681B681B6803F01003E6
:10319C00102B0AD10023FB607B681B681B68FB604B
:1031AC007B681B685B68FB60FB687B689B8D1946C2
:1031BC007868FFF7B2FE02E07868FFF79CFE002308
:1031CC0002E0002300E0022318461837BD4680BDFC
:1031DC0080B584B000AF78607B681B681B6923F4F2
:1031EC0040517B68DA687B681B680A431A617B680C
:1031FC009A687B681B691A437B685B691343BB60E5
:10320C007B681B68DB6823F4B05323F00C037A68EB
:10321C001268B9680B43D3607B681B685B6923F445
:10322C0040717B689A697B681B680A435A617B68AA
:10323C001B682C4A934203D1FFF72AF9F86002E08D
:10324C00FFF712F9F860FA6813469B0013449A00D2
:10325C001A447B685B689B00B2FBF3F3224AA2FB27
:10326C0003235B091901FA6813469B0013449A0067
:10327C001A447B685B689B00B2FBF3F21A4BA3FB0E
:10328C0002035B09642000FB03F3D31A1B013233E6
:10329C00154AA2FB03235B0903F0F0031944FA68F7
:1032AC0013469B0013449A001A447B685B689B008E
:1032BC00B2FBF3F20C4BA3FB02035B09642000FB93
:1032CC0003F3D31A1B013233074AA2FB03235B0916
:1032DC0003F00F027B681B680A449A6000BF10372A
:1032EC00BD4680BD003801401F85EB51014B18686D
:1032FC00704700BF2400002070B500260C4D0D4C0B
:10330C00641BA410A64209D100F05CFC00260A4DF7
:10331C000A4C641BA410A64205D170BD55F8043BA1
:10332C0098470136EEE755F8043B98470136F2E72B
:10333C00503C0008503C0008503C0008543C00082D
:10334C0003460244934200D1704703F8011BF9E78E
:10335C000EB46FF0004100B59CB01DAB029006900E
:10336C00079104910848094953F8042B059100680A
:10337C0002A9019300F068F80022029B1A701CB09D
:10338C005DF804EB03B07047240000200802FFFF37
:10339C002DE9F0478E6882469E420C4690461F46A9
:1033AC0038D88A8912F4906F32D0256809690133B4
:1033BC00A5EB010965694B4405EB450505EBD57596
:1033CC006D109D4238BF1D46530531D5294600F07E
:1033DC0053FB064650B90C234FF0FF30CAF80030AF
:1033EC00A38943F04003A381BDE8F0874A462169D5
:1033FC0000F0CEFAA38923F4906343F08003A381F9
:10340C0026614E4426603E466561A5EB0905A56024
:10341C00BE4200D93E4632464146206800F0C6FA0C
:10342C00A36822689B1B32440020A3602260DBE768
:10343C002A4600F07BFB06460028E1D15046216964
:10344C0000F0CEFAC7E700002DE9F04F98468B89C3
:10345C0007461B060D4614469DB00ED50B6963B985
:10346C00402100F009FB2860286120B90C233B6047
:10347C004FF0FF30D1E040236B61002309932023F0
:10348C008DF8293030234FF00109CDF80C80DFF88E
:10349C00A4818DF82A3023469A4613F8012B0AB1E1
:1034AC00252AF9D1BAEB040B0BD05B4622462946F0
:1034BC003846FFF76DFF013000F0AA80099A5A4494
:1034CC0009929AF80030002B00F0A28000234FF0F4
:1034DC00FF32CDE905230AF1010A049307938DF815
:1034EC0053301A935446052214F8011B514800F02E
:1034FC0041FA049AD8B9D00644BF20238DF8533032
:10350C00110744BF2B238DF853309AF800302A2B27
:10351C0015D0544600204FF00A0C079A214611F89A
:10352C00013B303B092B4ED9B0B1079214E0A0EB14
:10353C00080309FA03F31343A2460493D2E7039B4F
:10354C00191D1B680391002BBBBF5B4242F00202AA
:10355C0007930793B8BF049223782E2B0CD1637872
:10356C002A2B35D1039B02341A1D1B680392002BA6
:10357C00B8BF4FF0FF330593DFF8C8A003225046C5
:10358C00217800F0F7F940B14023A0EB0A0003FAD0
:10359C0000F0049B01340343049314F8011B06222E
:1035AC0025488DF8281000F0E5F9002838D0234B79
:1035BC001BBB039B073323F0070308330393099BBF
:1035CC003344099367E70C4601200CFB0232A5E754
:1035DC0000234FF00A0C194601340593204610F8CD
:1035EC00012B303A092A03D9002BC5D00591C3E72A
:1035FC00044601230CFB0121F0E703AB00932A46A0
:10360C0038460F4B04A9AFF30080421C0646D6D1B6
:10361C00AB895B063FF52CAF09981DB0BDE8F08F68
:10362C0003AB00932A463846054B04A900F07CF8FE
:10363C00EBE700BF1C3C0008263C00080000000023
:10364C009D330008223C00082DE9F04716469946A8
:10365C008A680B6907469342B8BF1346336091F8EA
:10366C0043200C46DDF820800AB101333360236817
:10367C00990642BF336802333360256815F006059E
:10368C0006D104F1190AE36832689B1AAB4228DCB4
:10369C0094F84320131E226818BF012392062DD4E0
:1036AC004946384604F14302C047013020D0236814
:1036BC00E56803F00603042B18BF002532684FF0B1
:1036CC000006A36808BFAD1A226908BF25EAE57594
:1036DC009342C4BF9B1AED181A34B5421AD100207C
:1036EC0008E00123524649463846C047013003D111
:1036FC004FF0FF30BDE8F0870135C4E73020E1180A
:10370C0081F843005A1C94F845102244023382F885
:10371C004310C5E70123224649463846C0470130CD
:10372C00E6D00136D9E700002DE9FF470C46277E8D
:10373C009146782F80469A460C9904F1430207D89B
:10374C00622F0AD8002F00F0D980582F00F0A480E7
:10375C0004F1420684F842703AE0A7F16303152B9A
:10376C00F6D801A050F823F0CD370008E137000857
:10377C005D3700085D3700085D3700085D370008CD
:10378C00E13700085D3700085D3700085D37000839
:10379C005D370008EF38000811380008D1380008F0
:1037AC005D3700085D370008113900085D370008E7
:1037BC00113800085D3700085D370008D93800085B
:1037CC000B6804F142061A1D1B680A6084F842302B
:1037DC000123A4E0256808682E0600F104030AD52D
:1037EC0005680B60002D03DA2D236D4284F84330FD
:1037FC000A235E4819E015F0400F05680B6018BFEE
:10380C002DB2EFE70B682568181D0860280601D556
:10381C001D6802E06906FBD51D886F2F0CBF0823BD
:10382C000A235248002184F843106668002EA8BF72
:10383C002168A660A4BF21F0040121600DB9002EFF
:10384C004DD01646B5FBF3F103FB1157C75D06F8D7
:10385C00017D2F46BB420D46F4D9082B0BD12368B2
:10386C00DF0708D5236961689942DEBF302306F86B
:10387C00013C06F1FF36921B22614B462146404625
:10388C00CDF800A003AAFFF7DFFE01304CD14FF0BA
:10389C00FF3004B0BDE8F087344884F845700E68FA
:1038AC00236856F8045B1F060E6014D5D90744BF75
:1038BC0043F0200323601DB9236823F02003236009
:1038CC001023AFE7236843F02003236078232848B4
:1038DC0084F84530E3E75E0648BFADB2E6E716462E
:1038EC00BBE70B6826681D1D60690D6035061B68FB
:1038FC0001D5186002E07106FBD51880002316462E
:10390C002361BAE70B681A1D0A601E680021304655
:10391C00626800F02FF808B1801B60606368236157
:10392C00002384F84330A8E73246494640462369D1
:10393C00D0470130ABD023689B0713D4E068039BBE
:10394C009842B8BF1846A4E7012332464946404680
:10395C00D04701309BD00135E36803995B1AAB4229
:10396C00F2DCEBE7002504F11906F5E72D3C000825
:10397C003E3C0008034610B5C9B2024493421846B7
:10398C0001D1002003E0047801338C42F6D110BD44
:10399C000A44914200F1FF3300D1704710B511F881
:1039AC00014B914203F8014FF9D110BD884210B57B
:1039BC0001EB020402D98442234607D8431EA142DC
:1039CC0008D011F8012B03F8012FF8E70146024447
:1039DC008A4200D110BD13F8014D02F8014DF7E7F2
:1039EC0038B50546002943D051F8043C0C1F002B78
:1039FC00B8BFE41800F0D0F81E4A1368104633B96B
:103A0C00636014602846BDE8384000F0CBB8A34290
:103A1C000AD921686218934201BF1A685B68521870
:103A2C00226063600460EDE71A465B680BB1A34249
:103A3C00FAD911685018A0420BD1206801445018D3
:103A4C0083421160DED118685B68014411605360D9
:103A5C00D8E702D90C232B60D4E7206821188B42BD
:103A6C0001BF19685B680918216063605460C9E77D
:103A7C0038BD00BFD4000020F8B5CD1C25F00305DF
:103A8C0008350C2D38BF0C25002D064601DBA9424C
:103A9C0003D90C2333600020F8BD00F07DF82149D8
:103AAC000A6814469CB9204F3B6823B9214630461E
:103ABC0000F062F838602946304600F05DF8431C8F
:103ACC0023D10C233046336000F06CF8E3E7236815
:103ADC005B1B17D40B2B03D923601C44256004E01B
:103AEC006368A2420CBF0B605360304600F05AF87A
:103AFC0004F10B00231D20F00700C21ACCD01B1AB6
:103B0C00A350C9E722466468CCE7C41C24F0030424
:103B1C00A042E3D0211A304600F02EF80130DDD15E
:103B2C00CFE700BFD4000020D8000020F8B507462E
:103B3C0014460E4621B91146BDE8F840FFF79CBF6C
:103B4C0022B9FFF74DFF25462846F8BD00F030F8A6
:103B5C00A0420FD221463846FFF78EFF05460028BB
:103B6C00F2D031462246FFF713FF31463846FFF7B5
:103B7C0037FFE9E73546E7E738B50023054D04463E
:103B8C0008462B60FDF794FA431C02D12B6803B155
:103B9C00236038BD8C040020014800F011B800BF30
:103BAC0094040020014800F00CB800BF94040020DD
:103BBC0051F8043C181F002BBCBF0B58C0187047A1
:103BCC0070477047F8B500BFF8BC08BC9E467047FC
:0C3BDC00F8B500BFF8BC08BC9E4670475E
:103BE80021375345473A2564256423000203040519
:103BF800060708090A0B0C0D0E0F10100000000034
:103C08000000000001020304060708090000000084
:103C180001020304232D302B2000686C4C006566DC
:103C28006745464700303132333435363738394105
:103C3800424344454600303132333435363738391B
:083C480061626364656600001F
:043C50003101000836
:043C54000D01000856
:103C5800050000000300000002000000050000004D
:103C680003000000020000000024F400100000001F
:103C780001000000280000200000000000000000F3
:103C8800000000000000000000000000000000002C
:103C9800000000000000000000000000000000001C
:103CA800000000000000000000000000000000000C
:103CB80000000000000000000000000000000000FC
:103CC80000000000000000000000000000000000EC
:083CD8000000000000000000E4
:04000005080014D506
:00000001FF
