:020000040800F2
:100000000050002095120008F50E0008FB0E0008B5
:10001000010F0008070F00080D0F00080000000086
:10002000000000000000000000000000130F0008A6
:100030001F0F0008000000002B0F0008370F0008FA
:10004000DD120008DD120008DD120008DD120008D4
:10005000DD120008DD120008DD120008DD120008C4
:10006000DD120008DD120008DD120008DD120008B4
:10007000DD120008DD120008DD120008DD120008A4
:10008000DD120008DD120008DD120008DD12000894
:10009000DD120008DD120008DD120008DD12000884
:1000A000DD120008DD120008DD120008DD12000874
:1000B000DD120008DD120008DD120008DD12000864
:1000C000DD120008DD120008DD120008DD12000854
:1000D000DD120008DD120008DD120008DD12000844
:1000E000DD120008DD120008DD120008000000002B
:1000F0000000000000000000000000000000000000
:0C01000000000000000000005FF808F1A3
:10010C0010B5054C237833B9044B13B10448AFF345
:10011C0000800123237010BD24000020000000008B
:10012C00A426000808B5034B1BB103490348AFF3E1
:10013C00008008BD0000000028000020A426000854
:10014C0080B483B000AF7860094A7B6852F82330E2
:10015C00012B06D1064A7B68002142F823100123AB
:10016C0000E0002318460C37BD4680BC704700BF2A
:10017C004000002080B500AF784B1B68013B042B7E
:10018C0000F2E98001A252F823F000BFAD01000893
:10019C00CD0100082D02000891020008F1020008B0
:1001AC006E4B02221A604FF47A7000F0CBFE6C4B4F
:1001BC001B686C4A136000F0E1FE00F02BFFCAE0F4
:1001CC000120FFF7BDFF0346002B0ED0634B0B2223
:1001DC001A604EF6602000F0B5FE00F0CFFE00F085
:1001EC0019FF604B63221A60B5E05F4B1B68012B53
:1001FC0040F0AA805B4B1B68013B5A4A13604FF4DA
:10020C007A7000F09FFE574B1A68584B1B689A4245
:10021C0040F09A8000F022FF504B03221A6093E0CA
:10022C000120FFF78DFF0346002B0ED04B4B0B220A
:10023C001A604EF6602000F085FE00F09FFE00F084
:10024C00E9FE484B63221A6085E0474B1B68012B83
:10025C007CD1444B1B68013B424A13604FF47A70CB
:10026C0000F070FE3F4B1B68002B6FD1404B1B689E
:10027C003C4A136000F0A6FE00F094FE374B0422BB
:10028C001A6063E00120FFF75BFF0346002B0ED0E2
:10029C00324B0B221A604EF6602000F053FE00F039
:1002AC006DFE00F0B7FE2F4B63221A6053E02E4B0D
:1002BC001B68012B4CD12B4B1B68013B294A13604B
:1002CC004FF47A7000F03EFE264B1B68002B3FD19A
:1002DC00284B1B68234A136000F0ACFE1F4B052211
:1002EC001A6035E00120FFF72BFF0346012B0ED1DE
:1002FC001A4B0B221A604EF6602000F023FE00F021
:10030C003DFE00F087FE174B63221A6023E0164B6C
:10031C001B68012B1ED1134B1B68013B114A136048
:10032C004FF47A7000F00EFE0E4B1B68002B11D1AF
:10033C000B4B1B680B4A136000F020FE00F06AFEAA
:10034C00064B02221A6005E000BF04E000BF02E089
:10035C0000BF00E000BF00BF80BD00BF5000002008
:10036C000000002054000020580000201400002041
:10037C00040000200800002080B500AF624B1B6811
:10038C000B3B032B00F2B58001A252F823F000BF07
:10039C00AD0300080304000857040008AB04000870
:1003AC000220FFF7CDFE0346002B06D0564B0C2245
:1003BC001A604EF6602000F0C5FD544B1B68002BF4
:1003CC0006D0514B03221A6000F0D8FD00F046FE17
:1003DC000120FFF7B5FE0346002B00F08C804A4B42
:1003EC0015221A604FF47A7000F0ACFD00F0FEFD9F
:1003FC0000F044FE7FE00220FFF7A2FE0346002B34
:10040C0006D0414B0D221A604EF6602000F09AFD8A
:10041C003E4B1B68002B06D03B4B04221A6000F0AD
:10042C00D1FD00F0BFFD0120FFF78AFE0346002B33
:10043C0063D0354B15221A604FF47A7000F082FDB0
:10044C0000F0D4FD00F01AFE57E00220FFF778FE12
:10045C000346002B06D02C4B0E221A604EF6602061
:10046C0000F070FD294B1B68002B06D0264B052293
:10047C001A6000F0DFFD00F095FD0120FFF760FE33
:10048C000346002B3BD0204B15221A604FF47A7098
:10049C0000F058FD00F0AAFD00F0F0FD2FE0022066
:1004AC00FFF74EFE0346002B06D0174B0B221A60AB
:1004BC004EF6602000F046FD144B1B68002B06D056
:1004CC00114B02221A6000F059FD00F0A3FD01202F
:1004DC00FFF736FE0346002B13D00B4B15221A6088
:1004EC004FF47A7000F02EFD00F080FD00F0C6FD98
:1004FC0007E000BF06E000BF04E000BF02E000BF61
:10050C0000E000BF00BF80BD50000020580000205C
:10051C0080B400AF00BFBD4680BC704780B500AF53
:10052C00BF4B1B68153B052B00F25D8201A252F8F4
:10053C0023F000BF5905000817060008D50600086F
:10054C00970700087708000835090008B54B1B68A9
:10055C00002B08D0B34B00221A604FF47A7000F0D5
:10056C00F1FC00F09BFD0120FFF7EAFD0346002B98
:10057C0018D00220FFF7E4FD0320FFF7E1FDA84BA4
:10058C0002221A6000F0D4FDA74B1B684FF47A725C
:10059C0002FB03F3184600F0D5FC00F0EFFC00F072
:1005AC0039FD2DE20020FFF7CBFD0220FFF7C8FD3F
:1005BC000346002B14D00320FFF7C2FD984B1622E4
:1005CC001A604FF47A7000F0BDFC00F0B1FD974B4F
:1005DC001B68974A136000F009FD00F04FFD0FE215
:1005EC000320FFF7ADFD0346002B00F0FE81904B7E
:1005FC001B6801338E4A13608D4B1B68632B40F3D1
:10060C00F4818B4B02221A60EFE1864B1B68002BA6
:10061C0008D0844B00221A604FF47A7000F092FCE0
:10062C0000F048FD0120FFF78BFD0346002B18D08E
:10063C000220FFF785FD0320FFF782FD00F09AFDF5
:10064C00774B02221A60784B1B684FF47A7202FBCC
:10065C0003F3184600F076FC00F090FC00F0DAFC96
:10066C00CEE10020FFF76CFD0220FFF769FD034689
:10067C00002B14D00320FFF763FD694B17221A607F
:10068C004FF47A7000F05EFC00F074FD694B1B684F
:10069C00674A136000F0AAFC00F0F0FCB0E1032004
:1006AC00FFF74EFD0346002B00F0A181604B1B6849
:1006BC0001335F4A13605E4B1B68632B40F39781D9
:1006CC005B4B02221A6092E1564B1B68002B08D040
:1006DC00544B00221A604FF47A7000F033FC00F097
:1006EC00F3FC0120FFF72CFD0346002B18D0022051
:1006FC00FFF726FD0320FFF723FD00F05DFD484BBF
:10070C0002221A60484B1B684FF47A7202FB03F307
:10071C00184600F017FC00F031FC00F07BFC6FE198
:10072C000020FFF70DFD0220FFF70AFD0346002B0A
:10073C0014D00320FFF704FD394B18221A604FF434
:10074C007A7000F0FFFB00F037FD374B1B68384A1E
:10075C00136000F04BFC00F091FC51E10320FFF71B
:10076C00EFFC0346002B00F04481314B1B68013336
:10077C002F4A13602D4B1A682D4B1B689A4200F3BD
:10078C0038812B4B01221A6033E1264B1B68002B5E
:10079C0008D0244B00221A604FF47A7000F0D2FB80
:1007AC0000F09CFC0120FFF7CBFC0346002B18D07B
:1007BC000220FFF7C5FC0320FFF7C2FC184B0222F6
:1007CC001A6000F013FD184B1B684FF47A7202FB91
:1007DC0003F3184600F0B6FB00F0D0FB00F01AFC57
:1007EC000EE10020FFF7ACFC0220FFF7A9FC03464A
:1007FC00002B23D00320FFF7A3FC094B19221A600E
:10080C004FF47A7000F09EFB00F0F0FC0A4B1B6872
:10081C00074A136000F0EAFB00F030FCF0E000BF88
:10082C005000002058000020100000200C00002078
:10083C005400002004000020080000200320FFF7D3
:10084C007FFC0346002B00F0D6806E4B1B680133F7
:10085C006C4A13606C4B1A686A4B1B689A4200F323
:10086C00CA80684B01221A60C5E0684B1B68002BDC
:10087C0008D0664B00221A604FF47A7000F062FBCD
:10088C0000F036FC0120FFF75BFC0346002B18D070
:10089C000220FFF755FC0320FFF752FC5C4B0222B1
:1008AC001A6000F0BDFC5B4B1B684FF47A7202FBC4
:1008BC0003F3184600F046FB00F060FB00F0AAFBC7
:1008CC009EE00020FFF73CFC0220FFF739FC0346BA
:1008DC00002B14D00320FFF733FC4D4B1A221A6067
:1008EC004FF47A7000F02EFB00F09AFC4A4B1B6818
:1008FC00444A136000F07AFB00F0C0FB80E0032058
:10090C00FFF71EFC0346002B77D03E4B1B680133D0
:10091C003C4A1360414B1A683A4B1B689A426CDC98
:10092C00384B01221A6068E0384B1B68002B08D04A
:10093C00364B00221A604FF47A7000F003FB00F083
:10094C00E9FB0120FFF7FCFB0346002B18D002202B
:10095C00FFF7F6FB0320FFF7F3FB2D4B02221A6087
:10096C0000F078FC2B4B1B684FF47A7202FB03F3FC
:10097C00184600F0E7FA00F001FB00F04BFB3FE0FB
:10098C000020FFF7DDFB0220FFF7DAFB0346002B0C
:10099C0014D00320FFF7D4FB1D4B15221A604FF423
:1009AC007A7000F0CFFA00F055FC174B1B68154A13
:1009BC00136000F01BFB00F061FB21E00320FFF74C
:1009CC00BFFB0346002B1AD00E4B1B6801330D4A9C
:1009DC0013600D4B1A680B4B1B689A420FDC094BCA
:1009EC0001221A600BE000BF0AE000BF08E000BF64
:1009FC0006E000BF04E000BF02E000BF00E000BF63
:100A0C0000BF80BD540000200000002058000020D2
:100A1C005000002010000020140000200C000020CA
:100A2C0080B500AF0221164800F01EFF03461A469F
:100A3C004FF48061124800F02EFF1021104800F096
:100A4C0013FF03461A4620210E4800F024FF012113
:100A5C000C4800F009FF03461A464FF48061094820
:100A6C0000F019FF4FF48061064800F0FDFE0346CC
:100A7C001A464021024800F00EFF00BF80BD00BFA7
:100A8C0000080140000C014080B500AF00F022FCD2
:100A9C0000F01CF800F0A8F800F05AF800F023F968
:100AAC000A220A21074800F033F9074801F05CFBE1
:100ABC00FFF760FBFFF760FCFFF730FDFFF728FD49
:100ACC00F6E700BF2D0A00086000002080B590B04A
:100ADC0000AF07F1180328220021184601F0D4FDBD
:100AEC003B1D00221A605A609A60DA601A61022378
:100AFC00BB610123BB621023FB6202237B630023D7
:100B0C00BB634FF46013FB6307F11803184600F046
:100B1C00F3FE0346002B01D000F0E0F80F237B60BE
:100B2C000223BB600023FB604FF480633B61002316
:100B3C007B613B1D0221184601F05EF90346002B38
:100B4C0001D000F0CBF800BF4037BD4680BD00009F
:100B5C0080B586B000AF07F1080300221A605A6016
:100B6C009A60DA603B4600221A605A601D4B4FF0C7
:100B7C0080421A601B4B0A225A601A4B00229A6060
:100B8C00184B4FF6FF72DA60164B00221A61154BA8
:100B9C0000229A61134801F097FA0346002B01D00A
:100BAC0000F09CF84FF48053BB6007F10803194622
:100BBC000C4801F02BFB0346002B01D000F08EF803
:100BCC0000233B6000237B603B461946054801F03F
:100BDC00D9FC0346002B01D000F080F800BF183779
:100BEC00BD4680BD6000002080B586B000AF07F127
:100BFC00080300221A605A609A60DA60344B9B69D1
:100C0C00334A43F004039361314B9B6903F00403B3
:100C1C007B607B682E4B9B692D4A43F008039361E4
:100C2C002B4B9B6903F008033B603B6800224FF49D
:100C3C008761284800F02FFE00224FF4A06126485F
:100C4C0000F029FE1323BB600023FB6000233B61F3
:100C5C0007F108031946204800F082FC4023BB60D2
:100C6C000223FB6002237B6107F1080319461A4833
:100C7C0000F076FC0123BB600023FB6000233B618A
:100C8C0007F108031946134800F06AFC4FF4876318
:100C9C00BB600123FB6000233B6102237B6107F1F6
:100CAC00080319460B4800F05BFC4FF4A063BB60D3
:100CBC000123FB6000233B6102237B6107F10803E6
:100CCC001946054800F04CFC00BF1837BD4680BDE6
:100CDC0000100240000C01400008014080B400AF3D
:100CEC0072B600BFFEE780B582B000AF0023FB7187
:100CFC0006E0FB79184600F069F8FB790133FB71CB
:100D0C00FB79272BF5D900BF00BF0837BD4680BD46
:100D1C0080B487B000AFF860B9607A6000237B6163
:100D2C0002E07B6901337B6126497A6913469B009B
:100D3C0013449B000B441B68002B02D07B69272BB0
:100D4C00EFD97B69282B01D1282335E01D497A691D
:100D5C0013469B0013449B000B44FA681A607B6893
:100D6C00194AA2FB0323D90816487A6913469B003B
:100D7C0013449B0003440833196012497A691346E3
:100D8C009B0013449B000B440433BA681A600D4952
:100D9C007A6913469B0013449B000B440C330022CE
:100DAC001A7008497A6913469B0013449B000B4444
:100DBC0010337A691A607B6918461C37BD4680BCB3
:100DCC00704700BFA8000020CDCCCCCC80B483B041
:100DDC0000AF78601C497A6813469B0013449B0053
:100DEC000B441B68002B01D1002327E016497A68BD
:100DFC0013469B0013449B000B4400221A601249BB
:100E0C007A6813469B0013449B000B440433002266
:100E1C001A600D497A6813469B0013449B000B44DF
:100E2C00083300221A6008497A6813469B00134461
:100E3C009B000B440C3300221A70012318460C370C
:100E4C00BD4680BC704700BFA800002080B485B0B0
:100E5C0000AF154B9B69144A43F001039361124B8D
:100E6C009B6903F00103BB60BB680F4BDB690E4A47
:100E7C0043F08053D3610C4BDB6903F080537B60F0
:100E8C007B680A4B5B68FB60FB6823F0E063FB60EC
:100E9C00FB6843F00073FB60044AFB68536000BFBF
:100EAC001437BD4680BC7047001002400000014062
:100EBC0080B485B000AF78607B681B68B3F1804F5D
:100ECC000BD1084BDB69074A43F00103D361054B97
:100EDC00DB6903F00103FB60FB6800BF1437BD4600
:100EEC0080BC70470010024080B400AFFEE780B4B5
:100EFC0000AFFEE780B400AFFEE780B400AFFEE7C2
:100F0C0080B400AFFEE780B400AF00BFBD4680BC2C
:100F1C00704780B400AF00BFBD4680BC704780B442
:100F2C0000AF00BFBD4680BC704780B500AF00F07D
:100F3C0017FA00BF80BD80B400AF00BFBD4680BCB7
:100F4C007047000080B483B000AF78607B68084ABB
:100F5C0082FB03129210DB17D31A064A1360064B5E
:100F6C0000221A6000BF0C37BD4680BC704700BF22
:100F7C00676666665C0000205800002080B500AFF4
:100F8C0001224FF48061054800F085FC0022082105
:100F9C00034800F080FC00BF80BD00BF000801408A
:100FAC00000C014080B500AF01222021044800F064
:100FBC0072FC00221021024800F06DFC00BF80BDC5
:100FCC00000C014080B500AF00224FF48061054851
:100FDC0000F061FC01220821034800F05CFC00BF1A
:100FEC0080BD00BF00080140000C014080B500AF7F
:100FFC0000224FF48061054800F04DFC00220821CE
:10100C00034800F048FC00BF80BD00BF0008014051
:10101C00000C014080B500AF00222021044800F0F4
:10102C003AFC01221021024800F035FC00BF80BDC3
:10103C00000C014080B500AF01224FF480610548DF
:10104C0000F029FC01220821034800F024FC00BF19
:10105C0080BD00BF00080140000C014080B500AF0E
:10106C0001222021044800F016FC01221021024824
:10107C0000F011FC00BF80BD000C014080B500AF3A
:10108C0000222021044800F006FC00221021024816
:10109C0000F001FC00BF80BD000C014080B500AF2A
:1010AC004FF48061024800F00EFC00BF80BD00BF11
:1010BC000008014080B500AF2021024800F003FC7D
:1010CC0000BF80BD000C014080B500AF0821024874
:1010DC0000F0F9FB00BF80BD000C014080B500AFF3
:1010EC001021024800F0EFFB00BF80BD000C014056
:1010FC0080B500AF4FF48061044800F0E4FB082198
:10110C00034800F0E0FB00BF80BD00BF00080140B9
:10111C00000C014080B500AF2021044800F0D3FB47
:10112C001021024800F0CFFB00BF80BD000C014035
:10113C0080B400AF0B4B1B680B4A13600A4B1A6848
:10114C000A4B1B689A4202DC084B01221A60064BC0
:10115C001A68064B1B68D31A054A136000BFBD46BC
:10116C0080BC7047540000200000002014000020B8
:10117C001000002080B400AF0B4B1B680B4A1360AF
:10118C000A4B1A680A4B1B689A4202DC084B012274
:10119C001A60064B1A68064B1B68D31A054A136073
:1011AC0000BFBD4680BC7047540000200C000020DE
:1011BC00080000200400002080B400AF074B1B681F
:1011CC00074A1360074B1A68054B1B68D31A064A6B
:1011DC00136000BFBD4680BC704700BF54000020A8
:1011EC00040000200C0000200800002080B400AF98
:1011FC00074B1B68074A1360074B1A68054B1B68A3
:10120C00D31A064A136000BFBD4680BC704700BFAE
:10121C0054000020100000200000002014000020CA
:10122C0080B400AF074B1B68074A1360074B1A6862
:10123C00054B1B68D31A064A136000BFBD4680BC21
:10124C00704700BF54000020080000200C00002054
:10125C000400002080B400AF074B1B68074A1360E2
:10126C00074B1A68054B1B68D31A064A136000BF5C
:10127C00BD4680BC704700BF540000201400002005
:10128C0000000020100000200C480D490D4A0023DE
:10129C0002E0D458C4500433C4188C42F9D30A4A1F
:1012AC000A4C002301E013600432A242FBD3FFF787
:1012BC0042FE01F0C5F9FFF7E7FB70470000002084
:1012CC0024000020E426000824000020CC03002089
:1012DC00FEE7000080B500AF084B1B68074A43F0DF
:1012EC0010031360032000F007F90F2000F008F83A
:1012FC00FFF7ACFD0023184680BD00BF0020024064
:10130C0080B582B000AF7860124B1A68124B1B7814
:10131C0019464FF47A73B3FBF1F3B2FBF3F31846AF
:10132C0000F011F90346002B01D001230EE07B687D
:10133C000F2B0AD8002279684FF0FF3000F0E7F845
:10134C00064A7B681360002300E001231846083727
:10135C00BD4680BD18000020200000201C0000208D
:10136C0080B400AF054B1B781A46054B1B68134421
:10137C00034A136000BFBD4680BC704720000020AC
:10138C00C803002080B400AF024B1B681846BD4652
:10139C0080BC7047C803002080B485B000AF786073
:1013AC007B6803F00703FB600C4BDB68BB60BA681F
:1013BC004FF6FF031340BB60FB681A02BB68134374
:1013CC0043F0BF6343F40033BB60044ABB68D36093
:1013DC0000BF1437BD4680BC704700BF00ED00E075
:1013EC0080B400AF044BDB681B0A03F007031846FC
:1013FC00BD4680BC704700BF00ED00E080B483B0F8
:10140C0000AF03463960FB7197F90730002B0ADBFC
:10141C003B68DAB20C4997F907301201D2B20B448F
:10142C0083F800230AE03B68DAB20849FB7903F041
:10143C000F03043B1201D2B20B441A7600BF0C37D7
:10144C00BD4680BC704700BF00E100E000ED00E04D
:10145C0080B489B000AFF860B9607A60FB6803F0C3
:10146C000703FB61FB69C3F10703042B28BF0423AB
:10147C00BB61FB690433062B02D9FB69033B00E01B
:10148C0000237B614FF0FF32BB6902FA03F3DA43AE
:10149C00BB681A407B699A404FF0FF317B6901FAB7
:1014AC0003F3D9437B680B40134318462437BD46DE
:1014BC0080BC704780B582B000AF78607B68013B20
:1014CC00B3F1807F01D301230FE00A4A7B68013B13
:1014DC0053600F214FF0FF30FFF790FF054B0022B8
:1014EC009A60044B07221A60002318460837BD4641
:1014FC0080BD00BF10E000E080B582B000AF786026
:10150C007868FFF749FF00BF0837BD4680BD80B53E
:10151C0086B000AF0346B9607A60FB7300237B6131
:10152C00FFF75EFF78617A68B9687869FFF790FF1A
:10153C00024697F90F3011461846FFF75FFF00BFC0
:10154C001837BD4680BD80B582B000AF7860786832
:10155C00FFF7B0FF034618460837BD4680BD0000B4
:10156C0080B48BB000AF7860396000237B620023BD
:10157C003B6269E101227B6A02FA03F3FB613B687F
:10158C001B68FA691340BB61BA69FB699A4240F067
:10159C0058813B685B689A4A93425ED0984A934262
:1015AC0075D8984A934258D0964A93426FD8964A27
:1015BC00934252D0944A934269D8944A93424CD065
:1015CC00924A934263D8924A934246D0904A9342AD
:1015DC005DD8122B2AD8122B59D801A252F823F01D
:1015EC0067160008411600085316000895160008E7
:1015FC009B1600089B1600089B1600089B160008FB
:10160C009B1600089B1600089B1600089B160008EA
:10161C009B1600089B1600089B1600089B160008DA
:10162C009B160008491600085D160008794A93427B
:10163C0013D02CE03B68DB683B6229E03B68DB683D
:10164C0004333B6224E03B68DB6808333B621FE0F9
:10165C003B68DB680C333B621AE03B689B68002BF1
:10166C0002D104233B6213E03B689B68012B05D13C
:10167C0008233B627B68FA691A6109E008233B6224
:10168C007B68FA695A6103E000233B6200E000BF0B
:10169C00BB69FF2B01D87B6801E07B6804337B615D
:1016AC00BB69FF2B02D87B6A9B0002E07B6A083B7C
:1016BC009B003B617B691A680F213B6901FA03F3BC
:1016CC00DB431A40396A3B6901FA03F31A437B691D
:1016DC001A603B685B6803F08053002B00F0B1800C
:1016EC004D4B9B694C4A43F0010393614A4B9B69F8
:1016FC0003F00103BB60BB68484A7B6A9B0802335A
:10170C0052F82330FB607B6A03F003039B000F222B
:10171C0002FA03F3DB43FA681340FB607B68404A30
:10172C00934213D07B683F4A93420DD07B683E4A6C
:10173C00934207D07B683D4A934201D1032306E0D4
:10174C00042304E0022302E0012300E000237A6A70
:10175C0002F0030292009340FA681343FB602F4996
:10176C007B6A9B080233FA6841F823203B685B686C
:10177C0003F48033002B06D02D4B1A682C49BB691F
:10178C0013430B6006E02A4B1A68BB69DB432849FC
:10179C0013400B603B685B6803F40033002B06D0EE
:1017AC00234B5A682249BB6913434B6006E0204B1C
:1017BC005A68BB69DB431E4913404B603B685B684E
:1017CC0003F48013002B06D0194B9A681849BB6997
:1017DC0013438B6006E0164B9A68BB69DB431449D4
:1017EC0013408B603B685B6803F40013002B21D023
:1017FC000F4BDA680E49BB691343CB6021E000BF85
:10180C0000003210000031100000221000002110E6
:10181C0000001210000011100010024000000140E6
:10182C0000080140000C0140001001400014014070
:10183C00000401400B4BDA68BB69DB4309491340D8
:10184C00CB607B6A01337B623B681A687B6A22FA45
:10185C0003F3002B7FF48EAE00BF00BF2C37BD46C8
:10186C0080BC70470004014080B485B000AF786044
:10187C000B467B807B689A687B881340002B02D0D8
:10188C000123FB7301E00023FB73FB7B1846143729
:10189C00BD4680BC704780B483B000AF78600B4607
:1018AC007B8013467B707B78002B03D07A887B6817
:1018BC001A6103E07B881A047B681A6100BF0C373D
:1018CC00BD4680BC704780B485B000AF78600B46D5
:1018DC007B807B68DB68FB607A88FB6813401A04AA
:1018EC00FB68D9437B880B401A437B681A6100BFA5
:1018FC001437BD4680BC704780B586B000AF7860A9
:10190C007B68002B01D101236CE27B681B6803F020
:10191C000103002B00F08780924B5B6803F00C03F3
:10192C00042B0CD08F4B5B6803F00C03082B12D1EB
:10193C008C4B5B6803F48033B3F5803F0BD1894B40
:10194C001B6803F40033002B6CD07B685B68002BA6
:10195C0068D1012346E27B685B68B3F5803F06D112
:10196C00804B1B687F4A43F4803313602EE07B6806
:10197C005B68002B0CD17B4B1B687A4A23F48033B9
:10198C001360784B1B68774A23F4802313601DE0A7
:10199C007B685B68B3F5A02F0CD1724B1B68714A46
:1019AC0043F4802313606F4B1B686E4A43F48033FF
:1019BC0013600BE06B4B1B686A4A23F48033136093
:1019CC00684B1B68674A23F4802313607B685B6851
:1019DC00002B13D0FFF7D6FC386108E0FFF7D2FCE0
:1019EC0002463B69D31A642B01D90323FAE15D4B00
:1019FC001B6803F40033002BF0D014E0FFF7C2FC9B
:101A0C00386108E0FFF7BEFC02463B69D31A642B31
:101A1C0001D90323E6E1534B1B6803F40033002B7D
:101A2C00F0D100E000BF7B681B6803F00203002BC1
:101A3C0063D04C4B5B6803F00C03002B0BD0494B71
:101A4C005B6803F00C03082B1CD1464B5B6803F45A
:101A5C008033002B16D1434B1B6803F00203002B81
:101A6C0005D07B681B69012B01D00123BAE13D4BEA
:101A7C001B6823F0F8027B685B69DB003949134370
:101A8C000B603AE07B681B69002B20D0364B01229F
:101A9C001A60FFF777FC386108E0FFF773FC024629
:101AAC003B69D31A022B01D903239BE12D4B1B68F5
:101ABC0003F00203002BF0D02A4B1B6823F0F80232
:101ACC007B685B69DB00274913430B6015E0264BF1
:101ADC0000221A60FFF756FC386108E0FFF752FC51
:101AEC0002463B69D31A022B01D903237AE11D4B21
:101AFC001B6803F00203002BF0D17B681B6803F01A
:101B0C000803002B3AD07B689B69002B19D0174B2C
:101B1C0001221A60FFF736FC386108E0FFF732FC4F
:101B2C0002463B69D31A022B01D903235AE10D4B10
:101B3C005B6A03F00203002BF0D0012000F0A6FA40
:101B4C001CE00A4B00221A60FFF71CFC38610FE006
:101B5C00FFF718FC02463B69D31A022B08D9032362
:101B6C0040E100BF001002400000424280044242AB
:101B7C009E4B5B6A03F00203002BE9D17B681B6868
:101B8C0003F00403002B00F0A6800023FB75974B99
:101B9C00DB6903F08053002B0DD1944BDB69934A26
:101BAC0043F08053D361914BDB6903F08053BB60EE
:101BBC00BB680123FB758E4B1B6803F48073002BF1
:101BCC0018D18B4B1B688A4A43F480731360FFF760
:101BDC00D9FB386108E0FFF7D5FB02463B69D31A05
:101BEC00642B01D90323FDE0814B1B6803F4807344
:101BFC00002BF0D07B68DB68012B06D17B4B1B6A7A
:101C0C007A4A43F0010313622DE07B68DB68002BFA
:101C1C000CD1764B1B6A754A23F001031362734B8C
:101C2C001B6A724A23F0040313621CE07B68DB68B6
:101C3C00052B0CD16D4B1B6A6C4A43F004031362E9
:101C4C006A4B1B6A694A43F0010313620BE0674B52
:101C5C001B6A664A23F001031362644B1B6A634AD6
:101C6C0023F0040313627B68DB68002B15D0FFF7AD
:101C7C0089FB38610AE0FFF785FB02463B69D31A02
:101C8C0041F28832934201D90323ABE0574B1B6AD4
:101C9C0003F00203002BEED014E0FFF773FB386166
:101CAC000AE0FFF76FFB02463B69D31A41F2883218
:101CBC00934201D9032395E04C4B1B6A03F00203BA
:101CCC00002BEED1FB7D012B05D1484BDB69474A3C
:101CDC0023F08053D3617B68DB69002B00F081809B
:101CEC00424B5B6803F00C03082B61D07B68DB690B
:101CFC00022B46D13F4B00221A60FFF743FB3861A1
:101D0C0008E0FFF73FFB02463B69D31A022B01D9CF
:101D1C00032367E0354B1B6803F00073002BF0D1F5
:101D2C007B681B6AB3F5803F08D1304B5B6823F4AA
:101D3C0000327B689B682D4913434B602B4B5B68CF
:101D4C0023F474127B68196A7B685B6A0B4327491E
:101D5C0013434B60274B01221A60FFF713FB3861CA
:101D6C0008E0FFF70FFB02463B69D31A022B01D99F
:101D7C00032337E01D4B1B6803F00073002BF0D0DE
:101D8C002FE01C4B00221A60FFF7FCFA386108E0C8
:101D9C00FFF7F8FA02463B69D31A022B01D9032349
:101DAC0020E0124B1B6803F00073002BF0D118E0FD
:101DBC007B68DB69012B01D1012313E00B4B5B68C2
:101DCC00FB60FB6803F480327B681B6A9A4206D185
:101DDC00FB6803F470127B685B6A9A4201D00123A2
:101DEC0000E0002318461837BD4680BD00100240A5
:101DFC00007000406000424280B584B000AF786053
:101E0C0039607B68002B01D10123D0E06A4B1B6841
:101E1C0003F007033A689A4210D9674B1B6823F00A
:101E2C00070265493B6813430B60634B1B6803F067
:101E3C0007033A689A4201D00123B8E07B681B681B
:101E4C0003F00203002B20D07B681B6803F0040313
:101E5C00002B05D0594B5B68584A43F4E063536040
:101E6C007B681B6803F00803002B05D0534B5B68A1
:101E7C00524A43F460535360504B5B6823F0F002BA
:101E8C007B689B684D4913434B607B681B6803F070
:101E9C000103002B40D07B685B68012B07D1474BBB
:101EAC001B6803F40033002B15D101237FE07B6802
:101EBC005B68022B07D1414B1B6803F00073002BAE
:101ECC0009D1012373E03D4B1B6803F00203002B87
:101EDC0001D101236BE0394B5B6823F003027B6873
:101EEC005B68364913434B60FFF74CFAF8600AE025
:101EFC00FFF748FA0246FB68D31A41F28832934244
:101F0C0001D9032353E02D4B5B6803F00C027B6873
:101F1C005B689B009A42EBD1274B1B6803F00703CD
:101F2C003A689A4210D2244B1B6823F007022249CC
:101F3C003B6813430B60204B1B6803F007033A68A4
:101F4C009A4201D0012332E07B681B6803F0040342
:101F5C00002B08D0194B5B6823F4E0627B68DB68CC
:101F6C00164913434B607B681B6803F00803002B76
:101F7C0009D0124B5B6823F460527B681B69DB0051
:101F8C000E4913434B6000F021F802460B4B5B6883
:101F9C001B0903F00F030A49CB5C22FA03F3094A2D
:101FAC001360094B1B681846FFF7AAF90023184663
:101FBC001037BD4680BD00BF00200240001002401B
:101FCC00CC260008180000201C00002090B48AB019
:101FDC0000AF2A4B3C1D0FCB84E80F0040F20123CD
:101FEC003B800023FB610023BB6100237B62002349
:101FFC007B6100233B62224B5B68FB61FB6903F056
:10200C000C03042B02D0082B03D02DE01D4B3B629C
:10201C002DE0FB699B0C03F00F0307F1280213441E
:10202C0013F8243C7B61FB6903F48033002B13D041
:10203C00134B5B685B0C03F0010307F1280213449C
:10204C0013F8283CBB617B690E4A02FB03F2BB69A7
:10205C00B2FBF3F37B6204E07B690B4A02FB03F3F4
:10206C007B627B6A3B6202E0064B3B6200BF3B6AD1
:10207C0018462837BD4690BC704700BFBC260008E8
:10208C000010024000127A0000093D0080B485B0B7
:10209C0000AF78600A4B1B680A4AA2FB03235B0A59
:1020AC007A6802FB03F3FB6000BFFB685A1EFA6000
:1020BC00002BF9D100BF00BF1437BD4680BC704760
:1020CC0018000020D34D621080B582B000AF78604C
:1020DC007B68002B01D1012341E07B6893F83D30F4
:1020EC00DBB2002B06D17B68002283F83C20786899
:1020FC00FEF7DEFE7B68022283F83D207B681A68BF
:10210C007B6804331946104600F044F97B680122C1
:10211C0083F846207B68012283F83E207B680122ED
:10212C0083F83F207B68012283F840207B680122E2
:10213C0083F841207B68012283F842207B680122CE
:10214C0083F843207B68012283F844207B680122BA
:10215C0083F845207B68012283F83D200023184634
:10216C000837BD4680BD000080B485B000AF7860F4
:10217C007B6893F83D30DBB2012B01D001233AE0B0
:10218C007B68022283F83D207B681B68DA687B68D9
:10219C001B6842F00102DA607B681B68184A9342A4
:1021AC000ED07B681B68B3F1804F09D07B681B682D
:1021BC00144A934204D07B681B68134A934211D192
:1021CC007B681B689B6803F00703FB60FB68062BAE
:1021DC0010D07B681B681A687B681B6842F0010290
:1021EC001A6007E07B681B681A687B681B6842F002
:1021FC0001021A60002318461437BD4680BC704794
:10220C00002C0140000400400008004080B584B060
:10221C0000AF786039607B6893F83C30012B01D1BA
:10222C000223B3E07B68012283F83C207B68022206
:10223C0083F83D207B681B689B68FB60FB6823F080
:10224C007703FB60FB6823F47F43FB607B681B68B0
:10225C00FA689A603B681B68B3F5005F3ED0B3F533
:10226C00005F00F28780B3F5805F00F08580B3F5E6
:10227C00805F7FD8702B1AD0702B7BD8602B50D0FE
:10228C00602B77D8502B3CD0502B73D8402B58D088
:10229C00402B6FD8302B64D0302B6BD8202B60D0D8
:1022AC00202B67D8002B5CD0102B5AD062E07B68B7
:1022BC0018683B6899683B685A683B68DB6800F0B3
:1022CC0042F97B681B689B68FB60FB6843F07703F3
:1022DC00FB607B681B68FA689A604EE07B68186844
:1022EC003B6899683B685A683B68DB6800F02BF9DF
:1022FC007B681B689A687B681B6842F480429A6012
:10230C003BE07B6818683B6859683B68DB681A4699
:10231C0000F0A2F87B681B685021184600F0F9F811
:10232C002BE07B6818683B6859683B68DB681A4689
:10233C0000F0C0F87B681B686021184600F0E9F8D3
:10234C001BE07B6818683B6859683B68DB681A4679
:10235C0000F082F87B681B684021184600F0D9F821
:10236C000BE07B681A683B681B681946104600F046
:10237C00D0F802E000BF00E000BF7B68012283F8C8
:10238C003D207B68002283F83C2000231846103740
:10239C00BD4680BD80B485B000AF786039607B6885
:1023AC001B68FB607B68294A93420BD07B68B3F1B6
:1023BC00804F07D07B68264A934203D07B68254A1E
:1023CC00934208D1FB6823F07003FB603B685B68A9
:1023DC00FA681343FB607B681C4A93420BD07B6802
:1023EC00B3F1804F07D07B68194A934203D07B68C6
:1023FC00184A934208D1FB6823F44073FB603B6896
:10240C00DB68FA681343FB60FB6823F080023B68CF
:10241C005B691343FB607B68FA681A603B689A68D7
:10242C007B68DA623B681A687B689A627B68074A49
:10243C00934203D13B681A697B681A637B6801225B
:10244C005A6100BF1437BD4680BC7047002C014058
:10245C00000400400008004080B487B000AFF86072
:10246C00B9607A60FB681B6A7B61FB681B6A23F0AE
:10247C000102FB681A62FB689B693B613B6923F0B4
:10248C00F0033B617B681B013A6913433B617B6939
:10249C0023F00A037B617A69BB6813437B61FB6899
:1024AC003A699A61FB687A691A6200BF1C37BD46AB
:1024BC0080BC704780B487B000AFF860B9607A60B8
:1024CC00FB681B6A23F01002FB681A62FB689B69AD
:1024DC007B61FB681B6A3B617B6923F470437B6106
:1024EC007B681B037A6913437B613B6923F0A00370
:1024FC003B61BB681B013A6913433B61FB687A691A
:10250C009A61FB683A691A6200BF1C37BD4680BCF1
:10251C00704780B485B000AF786039607B689B6889
:10252C00FB60FB6823F07003FB603A68FB681343A5
:10253C0043F00703FB607B68FA689A6000BF1437AE
:10254C00BD4680BC704780B487B000AFF860B960FE
:10255C007A603B60FB689B687B617B6923F47F43FB
:10256C007B613B681A027B681A43BB6813437A6928
:10257C0013437B61FB687A699A6000BF1C37BD46C8
:10258C0080BC704780B485B000AF786039607B68E0
:10259C0093F83C30012B01D1022346E07B680122E9
:1025AC0083F83C207B68022283F83D207B681B6803
:1025BC005B68FB607B681B689B68BB60FB6823F0F7
:1025CC007003FB603B681B68FA681343FB607B6815
:1025DC001B68FA685A607B681B68164A93420ED0D7
:1025EC007B681B68B3F1804F09D07B681B68124A6B
:1025FC00934204D07B681B68104A93420CD1BB6891
:10260C0023F08003BB603B685B68BA681343BB6014
:10261C007B681B68BA689A607B68012283F83D204E
:10262C007B68002283F83C20002318461437BD46F3
:10263C0080BC7047002C01400004004000080040A2
:10264C0070B500260C4D0D4C641BA410A64209D18C
:10265C0000F022F800260A4D0A4C641BA410A64276
:10266C0005D170BD55F8043B98470136EEE755F897
:10267C00043B98470136F2E7DC260008DC2600080C
:10268C00DC260008E026000803460244934200D1F1
:10269C00704703F8011BF9E7F8B500BFF8BC08BC9C
:1026AC009E467047F8B500BFF8BC08BC9E46704704
:1026BC0002030405060708090A0B0C0D0E0F101077
:1026CC0000000000000000000102030406070809D6
:0426DC0031010008C0
:0426E0000D010008E0
:1026E40005000000030000000200000005000000D7
:1026F40003000000020000000024F40010000000A9
:0427040001000000D0
:040000050800129548
:00000001FF
